{
  "_format": "hh-sol-artifact-1",
  "contractName": "BankV1",
  "sourceName": "contracts/BankV1.sol",
  "abi": [
    {
      "inputs": [],
      "stateMutability": "nonpayable",
      "type": "constructor"
    },
    {
      "anonymous": false,
      "inputs": [
        {
          "indexed": false,
          "internalType": "uint8",
          "name": "version",
          "type": "uint8"
        }
      ],
      "name": "Initialized",
      "type": "event"
    },
    {
      "anonymous": false,
      "inputs": [
        {
          "indexed": true,
          "internalType": "address",
          "name": "previousOwner",
          "type": "address"
        },
        {
          "indexed": true,
          "internalType": "address",
          "name": "newOwner",
          "type": "address"
        }
      ],
      "name": "OwnershipTransferred",
      "type": "event"
    },
    {
      "stateMutability": "payable",
      "type": "fallback"
    },
    {
      "inputs": [],
      "name": "ADDRESS_TOKEN",
      "outputs": [
        {
          "internalType": "address",
          "name": "",
          "type": "address"
        }
      ],
      "stateMutability": "view",
      "type": "function"
    },
    {
      "inputs": [],
      "name": "ADDRESS_UNLOCKER",
      "outputs": [
        {
          "internalType": "address",
          "name": "",
          "type": "address"
        }
      ],
      "stateMutability": "view",
      "type": "function"
    },
    {
      "inputs": [],
      "name": "VERSION",
      "outputs": [
        {
          "internalType": "uint256",
          "name": "",
          "type": "uint256"
        }
      ],
      "stateMutability": "view",
      "type": "function"
    },
    {
      "inputs": [],
      "name": "basePrice",
      "outputs": [
        {
          "internalType": "uint256",
          "name": "",
          "type": "uint256"
        }
      ],
      "stateMutability": "view",
      "type": "function"
    },
    {
      "inputs": [
        {
          "internalType": "uint256",
          "name": "amountCoin",
          "type": "uint256"
        }
      ],
      "name": "coinToToken",
      "outputs": [
        {
          "internalType": "uint256",
          "name": "",
          "type": "uint256"
        }
      ],
      "stateMutability": "view",
      "type": "function"
    },
    {
      "inputs": [],
      "name": "initialize",
      "outputs": [],
      "stateMutability": "nonpayable",
      "type": "function"
    },
    {
      "inputs": [],
      "name": "owner",
      "outputs": [
        {
          "internalType": "address",
          "name": "",
          "type": "address"
        }
      ],
      "stateMutability": "view",
      "type": "function"
    },
    {
      "inputs": [],
      "name": "renounceOwnership",
      "outputs": [],
      "stateMutability": "nonpayable",
      "type": "function"
    },
    {
      "inputs": [
        {
          "internalType": "uint256",
          "name": "amountToken",
          "type": "uint256"
        },
        {
          "internalType": "address",
          "name": "addrT",
          "type": "address"
        },
        {
          "internalType": "address",
          "name": "addrU",
          "type": "address"
        }
      ],
      "name": "setup",
      "outputs": [],
      "stateMutability": "payable",
      "type": "function"
    },
    {
      "inputs": [
        {
          "internalType": "address",
          "name": "receiver",
          "type": "address"
        }
      ],
      "name": "swapCoinToToken",
      "outputs": [
        {
          "internalType": "uint256",
          "name": "",
          "type": "uint256"
        }
      ],
      "stateMutability": "payable",
      "type": "function"
    },
    {
      "inputs": [
        {
          "internalType": "uint256",
          "name": "amountToken",
          "type": "uint256"
        },
        {
          "internalType": "address",
          "name": "receiver",
          "type": "address"
        }
      ],
      "name": "swapTokenToCoin",
      "outputs": [
        {
          "internalType": "uint256",
          "name": "",
          "type": "uint256"
        }
      ],
      "stateMutability": "nonpayable",
      "type": "function"
    },
    {
      "inputs": [
        {
          "internalType": "uint256",
          "name": "amountToken",
          "type": "uint256"
        }
      ],
      "name": "tokenToCoin",
      "outputs": [
        {
          "internalType": "uint256",
          "name": "",
          "type": "uint256"
        }
      ],
      "stateMutability": "view",
      "type": "function"
    },
    {
      "inputs": [
        {
          "internalType": "address",
          "name": "newOwner",
          "type": "address"
        }
      ],
      "name": "transferOwnership",
      "outputs": [],
      "stateMutability": "nonpayable",
      "type": "function"
    },
    {
      "inputs": [
        {
          "internalType": "uint256",
          "name": "amountToken",
          "type": "uint256"
        },
        {
          "internalType": "address",
          "name": "receiver",
          "type": "address"
        }
      ],
      "name": "unlockReward",
      "outputs": [
        {
          "internalType": "uint256",
          "name": "",
          "type": "uint256"
        }
      ],
      "stateMutability": "nonpayable",
      "type": "function"
    },
    {
      "inputs": [],
      "name": "updateBasePrice",
      "outputs": [
        {
          "internalType": "uint256",
          "name": "",
          "type": "uint256"
        }
      ],
      "stateMutability": "payable",
      "type": "function"
    },
    {
      "stateMutability": "payable",
      "type": "receive"
    }
  ],
  "bytecode": "0x60806040523480156200001157600080fd5b50620000226200002860201b60201c565b620001d2565b600060019054906101000a900460ff16156200007b576040517f08c379a0000000000000000000000000000000000000000000000000000000008152600401620000729062000175565b60405180910390fd5b60ff801660008054906101000a900460ff1660ff1614620000ec5760ff6000806101000a81548160ff021916908360ff1602179055507f7f26b83ff96e1f2b6a682f133852f6798a09c465da95921460cefb384740249860ff604051620000e39190620001b5565b60405180910390a15b565b600082825260208201905092915050565b7f496e697469616c697a61626c653a20636f6e747261637420697320696e69746960008201527f616c697a696e6700000000000000000000000000000000000000000000000000602082015250565b60006200015d602783620000ee565b91506200016a82620000ff565b604082019050919050565b6000602082019050818103600083015262000190816200014e565b9050919050565b600060ff82169050919050565b620001af8162000197565b82525050565b6000602082019050620001cc6000830184620001a4565b92915050565b6116ec80620001e26000396000f3fe6080604052600436106100ec5760003560e01c80638da5cb5b1161008a578063c7876ea411610059578063c7876ea4146102c5578063e0c8040a146102f0578063f2fde38b1461032d578063ffa1ad7414610356576100f3565b80638da5cb5b146101f5578063a3e0c30614610220578063b9cfe2a81461025d578063c44316c614610288576100f3565b806368c13765116100c657806368c137651461018d578063715018a6146101ab5780638129fc1c146101c257806385e2c30c146101d9576100f3565b806332b69897146100f55780633ddf56da146101325780634038d3c01461015d576100f3565b366100f357005b005b34801561010157600080fd5b5061011c60048036038101906101179190610fab565b610381565b6040516101299190610ffa565b60405180910390f35b34801561013e57600080fd5b506101476104ff565b6040516101549190611024565b60405180910390f35b6101776004803603810190610172919061103f565b610525565b6040516101849190610ffa565b60405180910390f35b6101956105f9565b6040516101a29190610ffa565b60405180910390f35b3480156101b757600080fd5b506101c0610775565b005b3480156101ce57600080fd5b506101d7610789565b005b6101f360048036038101906101ee919061106c565b6108c7565b005b34801561020157600080fd5b5061020a610a5a565b6040516102179190611024565b60405180910390f35b34801561022c57600080fd5b50610247600480360381019061024291906110bf565b610a84565b6040516102549190610ffa565b60405180910390f35b34801561026957600080fd5b50610272610ad9565b60405161027f9190611024565b60405180910390f35b34801561029457600080fd5b506102af60048036038101906102aa9190610fab565b610aff565b6040516102bc9190610ffa565b60405180910390f35b3480156102d157600080fd5b506102da610c05565b6040516102e79190610ffa565b60405180910390f35b3480156102fc57600080fd5b50610317600480360381019061031291906110bf565b610c0b565b6040516103249190610ffa565b60405180910390f35b34801561033957600080fd5b50610354600480360381019061034f919061103f565b610c60565b005b34801561036257600080fd5b5061036b610ce3565b6040516103789190610ffa565b60405180910390f35b600080831161038f57600080fd5b600061039a84610a84565b9050606660009054906101000a900473ffffffffffffffffffffffffffffffffffffffff1673ffffffffffffffffffffffffffffffffffffffff166323b872dd3330876040518463ffffffff1660e01b81526004016103fb939291906110ec565b6020604051808303816000875af115801561041a573d6000803e3d6000fd5b505050506040513d601f19601f8201168201806040525081019061043e919061115b565b5060008373ffffffffffffffffffffffffffffffffffffffff1682604051610465906111b9565b60006040518083038185875af1925050503d80600081146104a2576040519150601f19603f3d011682016040523d82523d6000602084013e6104a7565b606091505b50509050806104eb576040517f08c379a00000000000000000000000000000000000000000000000000000000081526004016104e29061122b565b60405180910390fd5b6104f36105f9565b50819250505092915050565b606760009054906101000a900473ffffffffffffffffffffffffffffffffffffffff1681565b6000803490506000811161053857600080fd5b600061054382610c0b565b9050606660009054906101000a900473ffffffffffffffffffffffffffffffffffffffff1673ffffffffffffffffffffffffffffffffffffffff1663a9059cbb85836040518363ffffffff1660e01b81526004016105a292919061124b565b6020604051808303816000875af11580156105c1573d6000803e3d6000fd5b505050506040513d601f19601f820116820180604052508101906105e5919061115b565b506105ee6105f9565b508092505050919050565b600080606660009054906101000a900473ffffffffffffffffffffffffffffffffffffffff1673ffffffffffffffffffffffffffffffffffffffff166318160ddd6040518163ffffffff1660e01b8152600401602060405180830381865afa158015610669573d6000803e3d6000fd5b505050506040513d601f19601f8201168201806040525081019061068d9190611289565b90506000606660009054906101000a900473ffffffffffffffffffffffffffffffffffffffff1673ffffffffffffffffffffffffffffffffffffffff166370a08231306040518263ffffffff1660e01b81526004016106ec9190611024565b602060405180830381865afa158015610709573d6000803e3d6000fd5b505050506040513d601f19601f8201168201806040525081019061072d9190611289565b90506000818361073d91906112e5565b9050600047905081670de0b6b3a7640000826107599190611319565b610763919061138a565b60688190555060685494505050505090565b61077d610ce9565b6107876000610d67565b565b60008060019054906101000a900460ff161590508080156107ba5750600160008054906101000a900460ff1660ff16105b806107e757506107c930610e2d565b1580156107e65750600160008054906101000a900460ff1660ff16145b5b610826576040517f08c379a000000000000000000000000000000000000000000000000000000000815260040161081d9061142d565b60405180910390fd5b60016000806101000a81548160ff021916908360ff1602179055508015610863576001600060016101000a81548160ff0219169083151502179055505b61086b610e50565b80156108c45760008060016101000a81548160ff0219169083151502179055507f7f26b83ff96e1f2b6a682f133852f6798a09c465da95921460cefb384740249860016040516108bb919061149f565b60405180910390a15b50565b6108cf610ce9565b6000606554146108de57600080fd5b60003411610921576040517f08c379a000000000000000000000000000000000000000000000000000000000815260040161091890611506565b60405180910390fd5b600160658190555081606660006101000a81548173ffffffffffffffffffffffffffffffffffffffff021916908373ffffffffffffffffffffffffffffffffffffffff16021790555080606760006101000a81548173ffffffffffffffffffffffffffffffffffffffff021916908373ffffffffffffffffffffffffffffffffffffffff160217905550606660009054906101000a900473ffffffffffffffffffffffffffffffffffffffff1673ffffffffffffffffffffffffffffffffffffffff1663a9059cbb33856040518363ffffffff1660e01b8152600401610a0892919061124b565b6020604051808303816000875af1158015610a27573d6000803e3d6000fd5b505050506040513d601f19601f82011682018060405250810190610a4b919061115b565b50610a546105f9565b50505050565b6000603360009054906101000a900473ffffffffffffffffffffffffffffffffffffffff16905090565b6000806103b6905060006103e882606854610a9f9190611319565b610aa9919061138a565b90506000670de0b6b3a76400008286610ac29190611319565b610acc919061138a565b9050809350505050919050565b606660009054906101000a900473ffffffffffffffffffffffffffffffffffffffff1681565b6000606760009054906101000a900473ffffffffffffffffffffffffffffffffffffffff1673ffffffffffffffffffffffffffffffffffffffff163373ffffffffffffffffffffffffffffffffffffffff1614610b5b57600080fd5b606660009054906101000a900473ffffffffffffffffffffffffffffffffffffffff1673ffffffffffffffffffffffffffffffffffffffff1663a9059cbb83856040518363ffffffff1660e01b8152600401610bb892919061124b565b6020604051808303816000875af1158015610bd7573d6000803e3d6000fd5b505050506040513d601f19601f82011682018060405250810190610bfb919061115b565b5082905092915050565b60685481565b60008061041a905060006103e882606854610c269190611319565b610c30919061138a565b9050600081670de0b6b3a764000086610c499190611319565b610c53919061138a565b9050809350505050919050565b610c68610ce9565b600073ffffffffffffffffffffffffffffffffffffffff168173ffffffffffffffffffffffffffffffffffffffff1603610cd7576040517f08c379a0000000000000000000000000000000000000000000000000000000008152600401610cce90611598565b60405180910390fd5b610ce081610d67565b50565b60655481565b610cf1610ea9565b73ffffffffffffffffffffffffffffffffffffffff16610d0f610a5a565b73ffffffffffffffffffffffffffffffffffffffff1614610d65576040517f08c379a0000000000000000000000000000000000000000000000000000000008152600401610d5c90611604565b60405180910390fd5b565b6000603360009054906101000a900473ffffffffffffffffffffffffffffffffffffffff16905081603360006101000a81548173ffffffffffffffffffffffffffffffffffffffff021916908373ffffffffffffffffffffffffffffffffffffffff1602179055508173ffffffffffffffffffffffffffffffffffffffff168173ffffffffffffffffffffffffffffffffffffffff167f8be0079c531659141344cd1fd0a4f28419497f9722a3daafe3b4186f6b6457e060405160405180910390a35050565b6000808273ffffffffffffffffffffffffffffffffffffffff163b119050919050565b600060019054906101000a900460ff16610e9f576040517f08c379a0000000000000000000000000000000000000000000000000000000008152600401610e9690611696565b60405180910390fd5b610ea7610eb1565b565b600033905090565b600060019054906101000a900460ff16610f00576040517f08c379a0000000000000000000000000000000000000000000000000000000008152600401610ef790611696565b60405180910390fd5b610f10610f0b610ea9565b610d67565b565b600080fd5b6000819050919050565b610f2a81610f17565b8114610f3557600080fd5b50565b600081359050610f4781610f21565b92915050565b600073ffffffffffffffffffffffffffffffffffffffff82169050919050565b6000610f7882610f4d565b9050919050565b610f8881610f6d565b8114610f9357600080fd5b50565b600081359050610fa581610f7f565b92915050565b60008060408385031215610fc257610fc1610f12565b5b6000610fd085828601610f38565b9250506020610fe185828601610f96565b9150509250929050565b610ff481610f17565b82525050565b600060208201905061100f6000830184610feb565b92915050565b61101e81610f6d565b82525050565b60006020820190506110396000830184611015565b92915050565b60006020828403121561105557611054610f12565b5b600061106384828501610f96565b91505092915050565b60008060006060848603121561108557611084610f12565b5b600061109386828701610f38565b93505060206110a486828701610f96565b92505060406110b586828701610f96565b9150509250925092565b6000602082840312156110d5576110d4610f12565b5b60006110e384828501610f38565b91505092915050565b60006060820190506111016000830186611015565b61110e6020830185611015565b61111b6040830184610feb565b949350505050565b60008115159050919050565b61113881611123565b811461114357600080fd5b50565b6000815190506111558161112f565b92915050565b60006020828403121561117157611170610f12565b5b600061117f84828501611146565b91505092915050565b600081905092915050565b50565b60006111a3600083611188565b91506111ae82611193565b600082019050919050565b60006111c482611196565b9150819050919050565b600082825260208201905092915050565b7f6661696c656420746f2073656e64000000000000000000000000000000000000600082015250565b6000611215600e836111ce565b9150611220826111df565b602082019050919050565b6000602082019050818103600083015261124481611208565b9050919050565b60006040820190506112606000830185611015565b61126d6020830184610feb565b9392505050565b60008151905061128381610f21565b92915050565b60006020828403121561129f5761129e610f12565b5b60006112ad84828501611274565b91505092915050565b7f4e487b7100000000000000000000000000000000000000000000000000000000600052601160045260246000fd5b60006112f082610f17565b91506112fb83610f17565b9250828203905081811115611313576113126112b6565b5b92915050565b600061132482610f17565b915061132f83610f17565b925082820261133d81610f17565b91508282048414831517611354576113536112b6565b5b5092915050565b7f4e487b7100000000000000000000000000000000000000000000000000000000600052601260045260246000fd5b600061139582610f17565b91506113a083610f17565b9250826113b0576113af61135b565b5b828204905092915050565b7f496e697469616c697a61626c653a20636f6e747261637420697320616c72656160008201527f647920696e697469616c697a6564000000000000000000000000000000000000602082015250565b6000611417602e836111ce565b9150611422826113bb565b604082019050919050565b600060208201905081810360008301526114468161140a565b9050919050565b6000819050919050565b600060ff82169050919050565b6000819050919050565b600061148961148461147f8461144d565b611464565b611457565b9050919050565b6114998161146e565b82525050565b60006020820190506114b46000830184611490565b92915050565b7f6e6f20636f696e20616d6f756e74000000000000000000000000000000000000600082015250565b60006114f0600e836111ce565b91506114fb826114ba565b602082019050919050565b6000602082019050818103600083015261151f816114e3565b9050919050565b7f4f776e61626c653a206e6577206f776e657220697320746865207a65726f206160008201527f6464726573730000000000000000000000000000000000000000000000000000602082015250565b60006115826026836111ce565b915061158d82611526565b604082019050919050565b600060208201905081810360008301526115b181611575565b9050919050565b7f4f776e61626c653a2063616c6c6572206973206e6f7420746865206f776e6572600082015250565b60006115ee6020836111ce565b91506115f9826115b8565b602082019050919050565b6000602082019050818103600083015261161d816115e1565b9050919050565b7f496e697469616c697a61626c653a20636f6e7472616374206973206e6f74206960008201527f6e697469616c697a696e67000000000000000000000000000000000000000000602082015250565b6000611680602b836111ce565b915061168b82611624565b604082019050919050565b600060208201905081810360008301526116af81611673565b905091905056fea26469706673582212200545353bc71a1e37e830890d0c4355f64254ed1238e498818ab5e71bf9c50ca764736f6c63430008120033",
  "linkReferences": {},
  "deployedLinkReferences": {}
}