{
  "_format": "hh-sol-artifact-1",
  "contractName": "PoolV1",
  "sourceName": "contracts/PoolV1.sol",
  "abi": [
    {
      "inputs": [],
      "stateMutability": "nonpayable",
      "type": "constructor"
    },
    {
      "anonymous": false,
      "inputs": [
        {
          "indexed": false,
          "internalType": "uint8",
          "name": "version",
          "type": "uint8"
        }
      ],
      "name": "Initialized",
      "type": "event"
    },
    {
      "anonymous": false,
      "inputs": [
        {
          "indexed": true,
          "internalType": "address",
          "name": "previousOwner",
          "type": "address"
        },
        {
          "indexed": true,
          "internalType": "address",
          "name": "newOwner",
          "type": "address"
        }
      ],
      "name": "OwnershipTransferred",
      "type": "event"
    },
    {
      "anonymous": false,
      "inputs": [
        {
          "indexed": false,
          "internalType": "uint256",
          "name": "ts",
          "type": "uint256"
        },
        {
          "indexed": false,
          "internalType": "uint256",
          "name": "interest",
          "type": "uint256"
        }
      ],
      "name": "PumpPrice",
      "type": "event"
    },
    {
      "anonymous": false,
      "inputs": [
        {
          "indexed": false,
          "internalType": "uint256",
          "name": "ts",
          "type": "uint256"
        },
        {
          "indexed": false,
          "internalType": "uint256",
          "name": "totalReward",
          "type": "uint256"
        }
      ],
      "name": "UpdateReward",
      "type": "event"
    },
    {
      "stateMutability": "payable",
      "type": "fallback"
    },
    {
      "inputs": [],
      "name": "ADDRESS_BANK",
      "outputs": [
        {
          "internalType": "address",
          "name": "",
          "type": "address"
        }
      ],
      "stateMutability": "view",
      "type": "function"
    },
    {
      "inputs": [],
      "name": "ADDRESS_NFTREWARD",
      "outputs": [
        {
          "internalType": "address",
          "name": "",
          "type": "address"
        }
      ],
      "stateMutability": "view",
      "type": "function"
    },
    {
      "inputs": [],
      "name": "ADDRESS_TOKEN",
      "outputs": [
        {
          "internalType": "address",
          "name": "",
          "type": "address"
        }
      ],
      "stateMutability": "view",
      "type": "function"
    },
    {
      "inputs": [],
      "name": "ADDRESS_TREWARD",
      "outputs": [
        {
          "internalType": "address",
          "name": "",
          "type": "address"
        }
      ],
      "stateMutability": "view",
      "type": "function"
    },
    {
      "inputs": [],
      "name": "VERSION",
      "outputs": [
        {
          "internalType": "uint256",
          "name": "",
          "type": "uint256"
        }
      ],
      "stateMutability": "view",
      "type": "function"
    },
    {
      "inputs": [],
      "name": "divider",
      "outputs": [
        {
          "internalType": "uint256",
          "name": "",
          "type": "uint256"
        }
      ],
      "stateMutability": "view",
      "type": "function"
    },
    {
      "inputs": [],
      "name": "initialize",
      "outputs": [],
      "stateMutability": "nonpayable",
      "type": "function"
    },
    {
      "inputs": [],
      "name": "lastPumpPriceTime",
      "outputs": [
        {
          "internalType": "uint256",
          "name": "",
          "type": "uint256"
        }
      ],
      "stateMutability": "view",
      "type": "function"
    },
    {
      "inputs": [],
      "name": "lastUpdateTime",
      "outputs": [
        {
          "internalType": "uint256",
          "name": "",
          "type": "uint256"
        }
      ],
      "stateMutability": "view",
      "type": "function"
    },
    {
      "inputs": [],
      "name": "owner",
      "outputs": [
        {
          "internalType": "address",
          "name": "",
          "type": "address"
        }
      ],
      "stateMutability": "view",
      "type": "function"
    },
    {
      "inputs": [],
      "name": "pumpPrice",
      "outputs": [
        {
          "internalType": "uint256",
          "name": "",
          "type": "uint256"
        }
      ],
      "stateMutability": "payable",
      "type": "function"
    },
    {
      "inputs": [],
      "name": "renounceOwnership",
      "outputs": [],
      "stateMutability": "nonpayable",
      "type": "function"
    },
    {
      "inputs": [
        {
          "internalType": "address",
          "name": "addrToken",
          "type": "address"
        },
        {
          "internalType": "address",
          "name": "addrBank",
          "type": "address"
        },
        {
          "internalType": "address",
          "name": "addrNR",
          "type": "address"
        },
        {
          "internalType": "address",
          "name": "addrTR",
          "type": "address"
        }
      ],
      "name": "setup",
      "outputs": [],
      "stateMutability": "nonpayable",
      "type": "function"
    },
    {
      "inputs": [
        {
          "internalType": "address",
          "name": "newOwner",
          "type": "address"
        }
      ],
      "name": "transferOwnership",
      "outputs": [],
      "stateMutability": "nonpayable",
      "type": "function"
    },
    {
      "inputs": [],
      "name": "update",
      "outputs": [
        {
          "internalType": "uint256",
          "name": "",
          "type": "uint256"
        }
      ],
      "stateMutability": "nonpayable",
      "type": "function"
    },
    {
      "stateMutability": "payable",
      "type": "receive"
    }
  ],
  "bytecode": "0x60806040523480156200001157600080fd5b50620000226200002860201b60201c565b620001d2565b600060019054906101000a900460ff16156200007b576040517f08c379a0000000000000000000000000000000000000000000000000000000008152600401620000729062000175565b60405180910390fd5b60ff801660008054906101000a900460ff1660ff1614620000ec5760ff6000806101000a81548160ff021916908360ff1602179055507f7f26b83ff96e1f2b6a682f133852f6798a09c465da95921460cefb384740249860ff604051620000e39190620001b5565b60405180910390a15b565b600082825260208201905092915050565b7f496e697469616c697a61626c653a20636f6e747261637420697320696e69746960008201527f616c697a696e6700000000000000000000000000000000000000000000000000602082015250565b60006200015d602783620000ee565b91506200016a82620000ff565b604082019050919050565b6000602082019050818103600083015262000190816200014e565b9050919050565b600060ff82169050919050565b620001af8162000197565b82525050565b6000602082019050620001cc6000830184620001a4565b92915050565b6118e880620001e26000396000f3fe6080604052600436106100ec5760003560e01c80638da5cb5b1161008a578063c8f33c9111610059578063c8f33c9114610297578063df6240ac146102c2578063f2fde38b146102ed578063ffa1ad7414610316576100f3565b80638da5cb5b146101eb578063a1f6467114610216578063a2e6204514610241578063b9cfe2a81461026c576100f3565b80636c8545ac116100c65780636c8545ac14610174578063715018a6146101925780638129fc1c146101a95780638b117e43146101c0576100f3565b80632c2b5a4b146100f5578063378efa371461012057806354c35a3c1461014b576100f3565b366100f357005b005b34801561010157600080fd5b5061010a610341565b60405161011791906111b5565b60405180910390f35b34801561012c57600080fd5b50610135610347565b60405161014291906111b5565b60405180910390f35b34801561015757600080fd5b50610172600480360381019061016d9190611233565b61034d565b005b61017c61048d565b60405161018991906111b5565b60405180910390f35b34801561019e57600080fd5b506101a7610646565b005b3480156101b557600080fd5b506101be61065a565b005b3480156101cc57600080fd5b506101d5610798565b6040516101e291906112a9565b60405180910390f35b3480156101f757600080fd5b506102006107be565b60405161020d91906112a9565b60405180910390f35b34801561022257600080fd5b5061022b6107e8565b60405161023891906112a9565b60405180910390f35b34801561024d57600080fd5b5061025661080e565b60405161026391906111b5565b60405180910390f35b34801561027857600080fd5b50610281610e98565b60405161028e91906112a9565b60405180910390f35b3480156102a357600080fd5b506102ac610ebe565b6040516102b991906111b5565b60405180910390f35b3480156102ce57600080fd5b506102d7610ec4565b6040516102e491906112a9565b60405180910390f35b3480156102f957600080fd5b50610314600480360381019061030f91906112c4565b610eea565b005b34801561032257600080fd5b5061032b610f6d565b60405161033891906111b5565b60405180910390f35b606b5481565b606c5481565b610355610f73565b60006065541461036457600080fd5b600160658190555083606660006101000a81548173ffffffffffffffffffffffffffffffffffffffff021916908373ffffffffffffffffffffffffffffffffffffffff16021790555082606760006101000a81548173ffffffffffffffffffffffffffffffffffffffff021916908373ffffffffffffffffffffffffffffffffffffffff16021790555081606860006101000a81548173ffffffffffffffffffffffffffffffffffffffff021916908373ffffffffffffffffffffffffffffffffffffffff16021790555080606960006101000a81548173ffffffffffffffffffffffffffffffffffffffff021916908373ffffffffffffffffffffffffffffffffffffffff16021790555042606a8190555042606b81905550612238606c8190555050505050565b6000803490506000810361055e57610e10606b546104ab9190611320565b42106104ec576040517f08c379a00000000000000000000000000000000000000000000000000000000081526004016104e3906113b1565b60405180910390fd5b6001606c541015610532576040517f08c379a00000000000000000000000000000000000000000000000000000000081526004016105299061141d565b60405180910390fd5b6000479050606c5481610545919061146c565b91506001606c54610556919061149d565b606c81905550505b600081111561063f57606760009054906101000a900473ffffffffffffffffffffffffffffffffffffffff1673ffffffffffffffffffffffffffffffffffffffff166368c13765826040518263ffffffff1660e01b815260040160206040518083038185885af11580156105d6573d6000803e3d6000fd5b50505050506040513d601f19601f820116820180604052508101906105fb91906114fd565b5042606b819055507f0489fa7c3a8f6a88e4d16e9fe0c0661bd5d74375240a1d47a92c5a46a294a23b606b548260405161063692919061152a565b60405180910390a15b8091505090565b61064e610f73565b6106586000610ff1565b565b60008060019054906101000a900460ff1615905080801561068b5750600160008054906101000a900460ff1660ff16105b806106b8575061069a306110b7565b1580156106b75750600160008054906101000a900460ff1660ff16145b5b6106f7576040517f08c379a00000000000000000000000000000000000000000000000000000000081526004016106ee906115c5565b60405180910390fd5b60016000806101000a81548160ff021916908360ff1602179055508015610734576001600060016101000a81548160ff0219169083151502179055505b61073c6110da565b80156107955760008060016101000a81548160ff0219169083151502179055507f7f26b83ff96e1f2b6a682f133852f6798a09c465da95921460cefb3847402498600160405161078c9190611637565b60405180910390a15b50565b606760009054906101000a900473ffffffffffffffffffffffffffffffffffffffff1681565b6000603360009054906101000a900473ffffffffffffffffffffffffffffffffffffffff16905090565b606860009054906101000a900473ffffffffffffffffffffffffffffffffffffffff1681565b6000806108196107be565b73ffffffffffffffffffffffffffffffffffffffff163373ffffffffffffffffffffffffffffffffffffffff161490506000606a5442610859919061149d565b9050620151808110158061086a5750815b6108a9576040517f08c379a00000000000000000000000000000000000000000000000000000000081526004016108a0906113b1565b60405180910390fd5b42606a819055506000606660009054906101000a900473ffffffffffffffffffffffffffffffffffffffff1673ffffffffffffffffffffffffffffffffffffffff166318160ddd6040518163ffffffff1660e01b8152600401602060405180830381865afa15801561091f573d6000803e3d6000fd5b505050506040513d601f19601f8201168201806040525081019061094391906114fd565b90506000606660009054906101000a900473ffffffffffffffffffffffffffffffffffffffff1673ffffffffffffffffffffffffffffffffffffffff166370a08231606760009054906101000a900473ffffffffffffffffffffffffffffffffffffffff166040518263ffffffff1660e01b81526004016109c491906112a9565b602060405180830381865afa1580156109e1573d6000803e3d6000fd5b505050506040513d601f19601f82011682018060405250810190610a0591906114fd565b905060008183610a15919061149d565b9050600063bbf81e0085600184610a2c9190611652565b610a369190611652565b610a40919061146c565b90506000600a82610a519190611652565b90506000600583610a629190611652565b90506000606860009054906101000a900473ffffffffffffffffffffffffffffffffffffffff1673ffffffffffffffffffffffffffffffffffffffff1663a17a26856040518163ffffffff1660e01b8152600401602060405180830381865afa158015610ad3573d6000803e3d6000fd5b505050506040513d601f19601f82011682018060405250810190610af791906116cc565b15610c5b57606760009054906101000a900473ffffffffffffffffffffffffffffffffffffffff1673ffffffffffffffffffffffffffffffffffffffff1663c44316c684606860009054906101000a900473ffffffffffffffffffffffffffffffffffffffff166040518363ffffffff1660e01b8152600401610b7b9291906116f9565b6020604051808303816000875af1158015610b9a573d6000803e3d6000fd5b505050506040513d601f19601f82011682018060405250810190610bbe91906114fd565b50606860009054906101000a900473ffffffffffffffffffffffffffffffffffffffff1673ffffffffffffffffffffffffffffffffffffffff1663e5f330e8846040518263ffffffff1660e01b8152600401610c1a91906111b5565b600060405180830381600087803b158015610c3457600080fd5b505af1158015610c48573d6000803e3d6000fd5b505050508281610c589190611320565b90505b606960009054906101000a900473ffffffffffffffffffffffffffffffffffffffff1673ffffffffffffffffffffffffffffffffffffffff1663a17a26856040518163ffffffff1660e01b8152600401602060405180830381865afa158015610cc8573d6000803e3d6000fd5b505050506040513d601f19601f82011682018060405250810190610cec91906116cc565b15610e5057606760009054906101000a900473ffffffffffffffffffffffffffffffffffffffff1673ffffffffffffffffffffffffffffffffffffffff1663c44316c683606960009054906101000a900473ffffffffffffffffffffffffffffffffffffffff166040518363ffffffff1660e01b8152600401610d709291906116f9565b6020604051808303816000875af1158015610d8f573d6000803e3d6000fd5b505050506040513d601f19601f82011682018060405250810190610db391906114fd565b50606960009054906101000a900473ffffffffffffffffffffffffffffffffffffffff1673ffffffffffffffffffffffffffffffffffffffff1663e5f330e8836040518263ffffffff1660e01b8152600401610e0f91906111b5565b600060405180830381600087803b158015610e2957600080fd5b505af1158015610e3d573d6000803e3d6000fd5b505050508181610e4d9190611320565b90505b7fbcabeac7f89430597dc942c3264f28fd08010c3b2e19ecf95c6e690f9820b2a44282604051610e8192919061152a565b60405180910390a180995050505050505050505090565b606660009054906101000a900473ffffffffffffffffffffffffffffffffffffffff1681565b606a5481565b606960009054906101000a900473ffffffffffffffffffffffffffffffffffffffff1681565b610ef2610f73565b600073ffffffffffffffffffffffffffffffffffffffff168173ffffffffffffffffffffffffffffffffffffffff1603610f61576040517f08c379a0000000000000000000000000000000000000000000000000000000008152600401610f5890611794565b60405180910390fd5b610f6a81610ff1565b50565b60655481565b610f7b611133565b73ffffffffffffffffffffffffffffffffffffffff16610f996107be565b73ffffffffffffffffffffffffffffffffffffffff1614610fef576040517f08c379a0000000000000000000000000000000000000000000000000000000008152600401610fe690611800565b60405180910390fd5b565b6000603360009054906101000a900473ffffffffffffffffffffffffffffffffffffffff16905081603360006101000a81548173ffffffffffffffffffffffffffffffffffffffff021916908373ffffffffffffffffffffffffffffffffffffffff1602179055508173ffffffffffffffffffffffffffffffffffffffff168173ffffffffffffffffffffffffffffffffffffffff167f8be0079c531659141344cd1fd0a4f28419497f9722a3daafe3b4186f6b6457e060405160405180910390a35050565b6000808273ffffffffffffffffffffffffffffffffffffffff163b119050919050565b600060019054906101000a900460ff16611129576040517f08c379a000000000000000000000000000000000000000000000000000000000815260040161112090611892565b60405180910390fd5b61113161113b565b565b600033905090565b600060019054906101000a900460ff1661118a576040517f08c379a000000000000000000000000000000000000000000000000000000000815260040161118190611892565b60405180910390fd5b61119a611195611133565b610ff1565b565b6000819050919050565b6111af8161119c565b82525050565b60006020820190506111ca60008301846111a6565b92915050565b600080fd5b600073ffffffffffffffffffffffffffffffffffffffff82169050919050565b6000611200826111d5565b9050919050565b611210816111f5565b811461121b57600080fd5b50565b60008135905061122d81611207565b92915050565b6000806000806080858703121561124d5761124c6111d0565b5b600061125b8782880161121e565b945050602061126c8782880161121e565b935050604061127d8782880161121e565b925050606061128e8782880161121e565b91505092959194509250565b6112a3816111f5565b82525050565b60006020820190506112be600083018461129a565b92915050565b6000602082840312156112da576112d96111d0565b5b60006112e88482850161121e565b91505092915050565b7f4e487b7100000000000000000000000000000000000000000000000000000000600052601160045260246000fd5b600061132b8261119c565b91506113368361119c565b925082820190508082111561134e5761134d6112f1565b5b92915050565b600082825260208201905092915050565b7f696e76616c69642074696d650000000000000000000000000000000000000000600082015250565b600061139b600c83611354565b91506113a682611365565b602082019050919050565b600060208201905081810360008301526113ca8161138e565b9050919050565b7f6e6f2073657373696f6e00000000000000000000000000000000000000000000600082015250565b6000611407600a83611354565b9150611412826113d1565b602082019050919050565b60006020820190508181036000830152611436816113fa565b9050919050565b7f4e487b7100000000000000000000000000000000000000000000000000000000600052601260045260246000fd5b60006114778261119c565b91506114828361119c565b9250826114925761149161143d565b5b828204905092915050565b60006114a88261119c565b91506114b38361119c565b92508282039050818111156114cb576114ca6112f1565b5b92915050565b6114da8161119c565b81146114e557600080fd5b50565b6000815190506114f7816114d1565b92915050565b600060208284031215611513576115126111d0565b5b6000611521848285016114e8565b91505092915050565b600060408201905061153f60008301856111a6565b61154c60208301846111a6565b9392505050565b7f496e697469616c697a61626c653a20636f6e747261637420697320616c72656160008201527f647920696e697469616c697a6564000000000000000000000000000000000000602082015250565b60006115af602e83611354565b91506115ba82611553565b604082019050919050565b600060208201905081810360008301526115de816115a2565b9050919050565b6000819050919050565b600060ff82169050919050565b6000819050919050565b600061162161161c611617846115e5565b6115fc565b6115ef565b9050919050565b61163181611606565b82525050565b600060208201905061164c6000830184611628565b92915050565b600061165d8261119c565b91506116688361119c565b92508282026116768161119c565b9150828204841483151761168d5761168c6112f1565b5b5092915050565b60008115159050919050565b6116a981611694565b81146116b457600080fd5b50565b6000815190506116c6816116a0565b92915050565b6000602082840312156116e2576116e16111d0565b5b60006116f0848285016116b7565b91505092915050565b600060408201905061170e60008301856111a6565b61171b602083018461129a565b9392505050565b7f4f776e61626c653a206e6577206f776e657220697320746865207a65726f206160008201527f6464726573730000000000000000000000000000000000000000000000000000602082015250565b600061177e602683611354565b915061178982611722565b604082019050919050565b600060208201905081810360008301526117ad81611771565b9050919050565b7f4f776e61626c653a2063616c6c6572206973206e6f7420746865206f776e6572600082015250565b60006117ea602083611354565b91506117f5826117b4565b602082019050919050565b60006020820190508181036000830152611819816117dd565b9050919050565b7f496e697469616c697a61626c653a20636f6e7472616374206973206e6f74206960008201527f6e697469616c697a696e67000000000000000000000000000000000000000000602082015250565b600061187c602b83611354565b915061188782611820565b604082019050919050565b600060208201905081810360008301526118ab8161186f565b905091905056fea26469706673582212207c467a25b43302339ad110ca26921d7ccae03222c1c82331d321d813b178546164736f6c63430008120033",
  "linkReferences": {},
  "deployedLinkReferences": {}
}