{
  "_format": "hh-sol-artifact-1",
  "contractName": "NFTV1",
  "sourceName": "contracts/NFTV1.sol",
  "abi": [
    {
      "inputs": [],
      "stateMutability": "nonpayable",
      "type": "constructor"
    },
    {
      "anonymous": false,
      "inputs": [
        {
          "indexed": true,
          "internalType": "address",
          "name": "owner",
          "type": "address"
        },
        {
          "indexed": true,
          "internalType": "address",
          "name": "approved",
          "type": "address"
        },
        {
          "indexed": true,
          "internalType": "uint256",
          "name": "tokenId",
          "type": "uint256"
        }
      ],
      "name": "Approval",
      "type": "event"
    },
    {
      "anonymous": false,
      "inputs": [
        {
          "indexed": true,
          "internalType": "address",
          "name": "owner",
          "type": "address"
        },
        {
          "indexed": true,
          "internalType": "address",
          "name": "operator",
          "type": "address"
        },
        {
          "indexed": false,
          "internalType": "bool",
          "name": "approved",
          "type": "bool"
        }
      ],
      "name": "ApprovalForAll",
      "type": "event"
    },
    {
      "anonymous": false,
      "inputs": [
        {
          "indexed": false,
          "internalType": "uint8",
          "name": "version",
          "type": "uint8"
        }
      ],
      "name": "Initialized",
      "type": "event"
    },
    {
      "anonymous": false,
      "inputs": [
        {
          "indexed": true,
          "internalType": "address",
          "name": "previousOwner",
          "type": "address"
        },
        {
          "indexed": true,
          "internalType": "address",
          "name": "newOwner",
          "type": "address"
        }
      ],
      "name": "OwnershipTransferred",
      "type": "event"
    },
    {
      "anonymous": false,
      "inputs": [
        {
          "indexed": true,
          "internalType": "address",
          "name": "from",
          "type": "address"
        },
        {
          "indexed": true,
          "internalType": "address",
          "name": "to",
          "type": "address"
        },
        {
          "indexed": true,
          "internalType": "uint256",
          "name": "tokenId",
          "type": "uint256"
        }
      ],
      "name": "Transfer",
      "type": "event"
    },
    {
      "stateMutability": "payable",
      "type": "fallback"
    },
    {
      "inputs": [],
      "name": "ADDRESS_NFTREWARD",
      "outputs": [
        {
          "internalType": "address",
          "name": "",
          "type": "address"
        }
      ],
      "stateMutability": "view",
      "type": "function"
    },
    {
      "inputs": [],
      "name": "ADDRESS_POOL",
      "outputs": [
        {
          "internalType": "address",
          "name": "",
          "type": "address"
        }
      ],
      "stateMutability": "view",
      "type": "function"
    },
    {
      "inputs": [],
      "name": "MAX_SUPPLY",
      "outputs": [
        {
          "internalType": "uint256",
          "name": "",
          "type": "uint256"
        }
      ],
      "stateMutability": "view",
      "type": "function"
    },
    {
      "inputs": [],
      "name": "PRICE",
      "outputs": [
        {
          "internalType": "uint256",
          "name": "",
          "type": "uint256"
        }
      ],
      "stateMutability": "view",
      "type": "function"
    },
    {
      "inputs": [],
      "name": "VERSION",
      "outputs": [
        {
          "internalType": "uint256",
          "name": "",
          "type": "uint256"
        }
      ],
      "stateMutability": "view",
      "type": "function"
    },
    {
      "inputs": [
        {
          "internalType": "address",
          "name": "to",
          "type": "address"
        },
        {
          "internalType": "uint256",
          "name": "tokenId",
          "type": "uint256"
        }
      ],
      "name": "approve",
      "outputs": [],
      "stateMutability": "nonpayable",
      "type": "function"
    },
    {
      "inputs": [
        {
          "internalType": "address",
          "name": "owner",
          "type": "address"
        }
      ],
      "name": "balanceOf",
      "outputs": [
        {
          "internalType": "uint256",
          "name": "",
          "type": "uint256"
        }
      ],
      "stateMutability": "view",
      "type": "function"
    },
    {
      "inputs": [],
      "name": "baseURL0",
      "outputs": [
        {
          "internalType": "string",
          "name": "",
          "type": "string"
        }
      ],
      "stateMutability": "view",
      "type": "function"
    },
    {
      "inputs": [],
      "name": "baseURL1",
      "outputs": [
        {
          "internalType": "string",
          "name": "",
          "type": "string"
        }
      ],
      "stateMutability": "view",
      "type": "function"
    },
    {
      "inputs": [
        {
          "internalType": "uint256",
          "name": "tokenId",
          "type": "uint256"
        }
      ],
      "name": "getApproved",
      "outputs": [
        {
          "internalType": "address",
          "name": "",
          "type": "address"
        }
      ],
      "stateMutability": "view",
      "type": "function"
    },
    {
      "inputs": [],
      "name": "getData",
      "outputs": [
        {
          "internalType": "uint256",
          "name": "",
          "type": "uint256"
        },
        {
          "internalType": "uint256",
          "name": "",
          "type": "uint256"
        },
        {
          "internalType": "uint256",
          "name": "",
          "type": "uint256"
        },
        {
          "internalType": "uint256",
          "name": "",
          "type": "uint256"
        },
        {
          "internalType": "uint256",
          "name": "",
          "type": "uint256"
        },
        {
          "internalType": "uint256",
          "name": "",
          "type": "uint256"
        }
      ],
      "stateMutability": "view",
      "type": "function"
    },
    {
      "inputs": [
        {
          "internalType": "uint256",
          "name": "index",
          "type": "uint256"
        }
      ],
      "name": "getNFTData",
      "outputs": [
        {
          "internalType": "uint256",
          "name": "",
          "type": "uint256"
        },
        {
          "internalType": "uint256",
          "name": "",
          "type": "uint256"
        },
        {
          "internalType": "uint256",
          "name": "",
          "type": "uint256"
        },
        {
          "internalType": "uint256",
          "name": "",
          "type": "uint256"
        }
      ],
      "stateMutability": "view",
      "type": "function"
    },
    {
      "inputs": [
        {
          "internalType": "string",
          "name": "name",
          "type": "string"
        },
        {
          "internalType": "string",
          "name": "symbol",
          "type": "string"
        }
      ],
      "name": "initialize",
      "outputs": [],
      "stateMutability": "nonpayable",
      "type": "function"
    },
    {
      "inputs": [
        {
          "internalType": "address",
          "name": "owner",
          "type": "address"
        },
        {
          "internalType": "address",
          "name": "operator",
          "type": "address"
        }
      ],
      "name": "isApprovedForAll",
      "outputs": [
        {
          "internalType": "bool",
          "name": "",
          "type": "bool"
        }
      ],
      "stateMutability": "view",
      "type": "function"
    },
    {
      "inputs": [
        {
          "internalType": "address",
          "name": "receiver",
          "type": "address"
        }
      ],
      "name": "mint",
      "outputs": [],
      "stateMutability": "payable",
      "type": "function"
    },
    {
      "inputs": [],
      "name": "name",
      "outputs": [
        {
          "internalType": "string",
          "name": "",
          "type": "string"
        }
      ],
      "stateMutability": "view",
      "type": "function"
    },
    {
      "inputs": [],
      "name": "owner",
      "outputs": [
        {
          "internalType": "address",
          "name": "",
          "type": "address"
        }
      ],
      "stateMutability": "view",
      "type": "function"
    },
    {
      "inputs": [
        {
          "internalType": "uint256",
          "name": "tokenId",
          "type": "uint256"
        }
      ],
      "name": "ownerOf",
      "outputs": [
        {
          "internalType": "address",
          "name": "",
          "type": "address"
        }
      ],
      "stateMutability": "view",
      "type": "function"
    },
    {
      "inputs": [
        {
          "internalType": "uint256",
          "name": "nftId",
          "type": "uint256"
        }
      ],
      "name": "powerUp",
      "outputs": [],
      "stateMutability": "payable",
      "type": "function"
    },
    {
      "inputs": [],
      "name": "renounceOwnership",
      "outputs": [],
      "stateMutability": "nonpayable",
      "type": "function"
    },
    {
      "inputs": [
        {
          "internalType": "address",
          "name": "from",
          "type": "address"
        },
        {
          "internalType": "address",
          "name": "to",
          "type": "address"
        },
        {
          "internalType": "uint256",
          "name": "tokenId",
          "type": "uint256"
        }
      ],
      "name": "safeTransferFrom",
      "outputs": [],
      "stateMutability": "nonpayable",
      "type": "function"
    },
    {
      "inputs": [
        {
          "internalType": "address",
          "name": "from",
          "type": "address"
        },
        {
          "internalType": "address",
          "name": "to",
          "type": "address"
        },
        {
          "internalType": "uint256",
          "name": "tokenId",
          "type": "uint256"
        },
        {
          "internalType": "bytes",
          "name": "data",
          "type": "bytes"
        }
      ],
      "name": "safeTransferFrom",
      "outputs": [],
      "stateMutability": "nonpayable",
      "type": "function"
    },
    {
      "inputs": [
        {
          "internalType": "address",
          "name": "operator",
          "type": "address"
        },
        {
          "internalType": "bool",
          "name": "approved",
          "type": "bool"
        }
      ],
      "name": "setApprovalForAll",
      "outputs": [],
      "stateMutability": "nonpayable",
      "type": "function"
    },
    {
      "inputs": [
        {
          "internalType": "string",
          "name": "url0",
          "type": "string"
        },
        {
          "internalType": "string",
          "name": "url1",
          "type": "string"
        }
      ],
      "name": "setURL",
      "outputs": [],
      "stateMutability": "nonpayable",
      "type": "function"
    },
    {
      "inputs": [
        {
          "internalType": "address",
          "name": "addrPool",
          "type": "address"
        },
        {
          "internalType": "address",
          "name": "addrNR",
          "type": "address"
        },
        {
          "internalType": "uint256",
          "name": "price",
          "type": "uint256"
        },
        {
          "internalType": "uint256",
          "name": "maxSupply",
          "type": "uint256"
        }
      ],
      "name": "setup",
      "outputs": [],
      "stateMutability": "nonpayable",
      "type": "function"
    },
    {
      "inputs": [
        {
          "internalType": "bytes4",
          "name": "interfaceId",
          "type": "bytes4"
        }
      ],
      "name": "supportsInterface",
      "outputs": [
        {
          "internalType": "bool",
          "name": "",
          "type": "bool"
        }
      ],
      "stateMutability": "view",
      "type": "function"
    },
    {
      "inputs": [],
      "name": "symbol",
      "outputs": [
        {
          "internalType": "string",
          "name": "",
          "type": "string"
        }
      ],
      "stateMutability": "view",
      "type": "function"
    },
    {
      "inputs": [
        {
          "internalType": "uint256",
          "name": "index",
          "type": "uint256"
        }
      ],
      "name": "tokenByIndex",
      "outputs": [
        {
          "internalType": "uint256",
          "name": "",
          "type": "uint256"
        }
      ],
      "stateMutability": "view",
      "type": "function"
    },
    {
      "inputs": [
        {
          "internalType": "address",
          "name": "owner",
          "type": "address"
        },
        {
          "internalType": "uint256",
          "name": "index",
          "type": "uint256"
        }
      ],
      "name": "tokenOfOwnerByIndex",
      "outputs": [
        {
          "internalType": "uint256",
          "name": "",
          "type": "uint256"
        }
      ],
      "stateMutability": "view",
      "type": "function"
    },
    {
      "inputs": [
        {
          "internalType": "uint256",
          "name": "nftId",
          "type": "uint256"
        }
      ],
      "name": "tokenURI",
      "outputs": [
        {
          "internalType": "string",
          "name": "",
          "type": "string"
        }
      ],
      "stateMutability": "view",
      "type": "function"
    },
    {
      "inputs": [],
      "name": "totalSupply",
      "outputs": [
        {
          "internalType": "uint256",
          "name": "",
          "type": "uint256"
        }
      ],
      "stateMutability": "view",
      "type": "function"
    },
    {
      "inputs": [
        {
          "internalType": "address",
          "name": "from",
          "type": "address"
        },
        {
          "internalType": "address",
          "name": "to",
          "type": "address"
        },
        {
          "internalType": "uint256",
          "name": "tokenId",
          "type": "uint256"
        }
      ],
      "name": "transferFrom",
      "outputs": [],
      "stateMutability": "nonpayable",
      "type": "function"
    },
    {
      "inputs": [
        {
          "internalType": "address",
          "name": "newOwner",
          "type": "address"
        }
      ],
      "name": "transferOwnership",
      "outputs": [],
      "stateMutability": "nonpayable",
      "type": "function"
    },
    {
      "stateMutability": "payable",
      "type": "receive"
    }
  ],
  "bytecode": "0x60806040523480156200001157600080fd5b50620000226200002860201b60201c565b620001d2565b600060019054906101000a900460ff16156200007b576040517f08c379a0000000000000000000000000000000000000000000000000000000008152600401620000729062000175565b60405180910390fd5b60ff801660008054906101000a900460ff1660ff1614620000ec5760ff6000806101000a81548160ff021916908360ff1602179055507f7f26b83ff96e1f2b6a682f133852f6798a09c465da95921460cefb384740249860ff604051620000e39190620001b5565b60405180910390a15b565b600082825260208201905092915050565b7f496e697469616c697a61626c653a20636f6e747261637420697320696e69746960008201527f616c697a696e6700000000000000000000000000000000000000000000000000602082015250565b60006200015d602783620000ee565b91506200016a82620000ff565b604082019050919050565b6000602082019050818103600083015262000190816200014e565b9050919050565b600060ff82169050919050565b620001af8162000197565b82525050565b6000602082019050620001cc6000830184620001a4565b92915050565b61498980620001e26000396000f3fe6080604052600436106101f25760003560e01c806367d2e88e1161010d578063a1f64671116100a0578063cad7976c1161006f578063cad7976c14610705578063e985e9c514610730578063f2fde38b1461076d578063fb11fe1614610796578063ffa1ad74146107c1576101f9565b8063a1f646711461064b578063a22cb46514610676578063b88d4fde1461069f578063c87b56dd146106c8576101f9565b80638d859f3e116100dc5780638d859f3e146105ae5780638da5cb5b146105d957806395d89b41146106045780639a6bd3791461062f576101f9565b806367d2e88e146105135780636a6278421461053e57806370a082311461055a578063715018a614610597576101f9565b806323b872dd1161018557806342842e0e1161015457806342842e0e146104475780634cd88b76146104705780634f6ccce7146104995780636352211e146104d6576101f9565b806323b872dd146103865780632f745c59146103af57806332cb6b0c146103ec5780633bc5de3014610417576101f9565b8063095ea7b3116101c1578063095ea7b3146102c95780630ad4c4f4146102f257806316ecc6861461033257806318160ddd1461035b576101f9565b806301ffc9a7146101fb57806306a8c9931461023857806306fdde0314610261578063081812fc1461028c576101f9565b366101f957005b005b34801561020757600080fd5b50610222600480360381019061021d9190612f96565b6107ec565b60405161022f9190612fde565b60405180910390f35b34801561024457600080fd5b5061025f600480360381019061025a919061313f565b6107fe565b005b34801561026d57600080fd5b5061027661082a565b6040516102839190613236565b60405180910390f35b34801561029857600080fd5b506102b360048036038101906102ae919061328e565b6108bc565b6040516102c091906132fc565b60405180910390f35b3480156102d557600080fd5b506102f060048036038101906102eb9190613343565b610902565b005b3480156102fe57600080fd5b506103196004803603810190610314919061328e565b610a19565b6040516103299493929190613392565b60405180910390f35b34801561033e57600080fd5b50610359600480360381019061035491906133d7565b610aca565b005b34801561036757600080fd5b50610370610bfc565b60405161037d919061343e565b60405180910390f35b34801561039257600080fd5b506103ad60048036038101906103a89190613459565b610c09565b005b3480156103bb57600080fd5b506103d660048036038101906103d19190613343565b610c69565b6040516103e3919061343e565b60405180910390f35b3480156103f857600080fd5b50610401610d0e565b60405161040e919061343e565b60405180910390f35b34801561042357600080fd5b5061042c610d14565b60405161043e969594939291906134ac565b60405180910390f35b34801561045357600080fd5b5061046e60048036038101906104699190613459565b610d41565b005b34801561047c57600080fd5b506104976004803603810190610492919061313f565b610d61565b005b3480156104a557600080fd5b506104c060048036038101906104bb919061328e565b610eb3565b6040516104cd919061343e565b60405180910390f35b3480156104e257600080fd5b506104fd60048036038101906104f8919061328e565b610f24565b60405161050a91906132fc565b60405180910390f35b34801561051f57600080fd5b50610528610faa565b6040516105359190613236565b60405180910390f35b6105586004803603810190610553919061350d565b611038565b005b34801561056657600080fd5b50610581600480360381019061057c919061350d565b611236565b60405161058e919061343e565b60405180910390f35b3480156105a357600080fd5b506105ac6112ed565b005b3480156105ba57600080fd5b506105c3611301565b6040516105d0919061343e565b60405180910390f35b3480156105e557600080fd5b506105ee611307565b6040516105fb91906132fc565b60405180910390f35b34801561061057600080fd5b50610619611331565b6040516106269190613236565b60405180910390f35b6106496004803603810190610644919061328e565b6113c3565b005b34801561065757600080fd5b5061066061155e565b60405161066d91906132fc565b60405180910390f35b34801561068257600080fd5b5061069d60048036038101906106989190613566565b611585565b005b3480156106ab57600080fd5b506106c660048036038101906106c19190613647565b61159b565b005b3480156106d457600080fd5b506106ef60048036038101906106ea919061328e565b6115fd565b6040516106fc9190613236565b60405180910390f35b34801561071157600080fd5b5061071a61163a565b6040516107279190613236565b60405180910390f35b34801561073c57600080fd5b50610757600480360381019061075291906136ca565b6116c8565b6040516107649190612fde565b60405180910390f35b34801561077957600080fd5b50610794600480360381019061078f919061350d565b61175c565b005b3480156107a257600080fd5b506107ab6117df565b6040516107b891906132fc565b60405180910390f35b3480156107cd57600080fd5b506107d6611806565b6040516107e3919061343e565b60405180910390f35b60006107f78261180c565b9050919050565b610806611886565b8160fe90816108159190613916565b508060ff90816108259190613916565b505050565b60606065805461083990613739565b80601f016020809104026020016040519081016040528092919081815260200182805461086590613739565b80156108b25780601f10610887576101008083540402835291602001916108b2565b820191906000526020600020905b81548152906001019060200180831161089557829003601f168201915b5050505050905090565b60006108c782611904565b6069600083815260200190815260200160002060009054906101000a900473ffffffffffffffffffffffffffffffffffffffff169050919050565b600061090d82610f24565b90508073ffffffffffffffffffffffffffffffffffffffff168373ffffffffffffffffffffffffffffffffffffffff160361097d576040517f08c379a000000000000000000000000000000000000000000000000000000000815260040161097490613a5a565b60405180910390fd5b8073ffffffffffffffffffffffffffffffffffffffff1661099c61194f565b73ffffffffffffffffffffffffffffffffffffffff1614806109cb57506109ca816109c561194f565b6116c8565b5b610a0a576040517f08c379a0000000000000000000000000000000000000000000000000000000008152600401610a0190613aec565b60405180910390fd5b610a148383611957565b505050565b6000806000806101028581548110610a3457610a33613b0c565b5b9060005260206000209060040201600001546101028681548110610a5b57610a5a613b0c565b5b9060005260206000209060040201600101546101028781548110610a8257610a81613b0c565b5b9060005260206000209060040201600201546101028881548110610aa957610aa8613b0c565b5b90600052602060002090600402016003015493509350935093509193509193565b610ad2611886565b600060fb5414610ae157600080fd5b600160fb819055508361010060006101000a81548173ffffffffffffffffffffffffffffffffffffffff021916908373ffffffffffffffffffffffffffffffffffffffff1602179055508261010160006101000a81548173ffffffffffffffffffffffffffffffffffffffff021916908373ffffffffffffffffffffffffffffffffffffffff1602179055506101026040518060800160405280600081526020016000815260200160008152602001600081525090806001815401808255809150506001900390600052602060002090600402016000909190919091506000820151816000015560208201518160010155604082015181600201556060820151816003015550508160fc819055508060fd8190555050505050565b6000609980549050905090565b610c1a610c1461194f565b82611a10565b610c59576040517f08c379a0000000000000000000000000000000000000000000000000000000008152600401610c5090613bad565b60405180910390fd5b610c64838383611aa5565b505050565b6000610c7483611236565b8210610cb5576040517f08c379a0000000000000000000000000000000000000000000000000000000008152600401610cac90613c3f565b60405180910390fd5b609760008473ffffffffffffffffffffffffffffffffffffffff1673ffffffffffffffffffffffffffffffffffffffff168152602001908152602001600020600083815260200190815260200160002054905092915050565b60fd5481565b60008060008060008060fb5461010280549050600080600080955095509550955095509550909192939495565b610d5c8383836040518060200160405280600081525061159b565b505050565b60008060019054906101000a900460ff16159050808015610d925750600160008054906101000a900460ff1660ff16105b80610dbf5750610da130611d9e565b158015610dbe5750600160008054906101000a900460ff1660ff16145b5b610dfe576040517f08c379a0000000000000000000000000000000000000000000000000000000008152600401610df590613cd1565b60405180910390fd5b60016000806101000a81548160ff021916908360ff1602179055508015610e3b576001600060016101000a81548160ff0219169083151502179055505b610e458383611dc1565b610e4d611e1e565b610e55611e6f565b8015610eae5760008060016101000a81548160ff0219169083151502179055507f7f26b83ff96e1f2b6a682f133852f6798a09c465da95921460cefb38474024986001604051610ea59190613d39565b60405180910390a15b505050565b6000610ebd610bfc565b8210610efe576040517f08c379a0000000000000000000000000000000000000000000000000000000008152600401610ef590613dc6565b60405180910390fd5b60998281548110610f1257610f11613b0c565b5b90600052602060002001549050919050565b600080610f3083611ec8565b9050600073ffffffffffffffffffffffffffffffffffffffff168173ffffffffffffffffffffffffffffffffffffffff1603610fa1576040517f08c379a0000000000000000000000000000000000000000000000000000000008152600401610f9890613e32565b60405180910390fd5b80915050919050565b60ff8054610fb790613739565b80601f0160208091040260200160405190810160405280929190818152602001828054610fe390613739565b80156110305780601f1061100557610100808354040283529160200191611030565b820191906000526020600020905b81548152906001019060200180831161101357829003601f168201915b505050505081565b600060fc549050611047611307565b73ffffffffffffffffffffffffffffffffffffffff163373ffffffffffffffffffffffffffffffffffffffff161461107d573490505b60fc5481146110c1576040517f08c379a00000000000000000000000000000000000000000000000000000000081526004016110b890613e9e565b60405180910390fd5b60fd5461010280549050111561110c576040517f08c379a000000000000000000000000000000000000000000000000000000000815260040161110390613f0a565b60405180910390fd5b611114611f05565b60006101028054905090506101026040518060800160405280838152602001428152602001848152602001600081525090806001815401808255809150506001900390600052602060002090600402016000909190919091506000820151816000015560208201518160010155604082015181600201556060820151816003015550506111a18382611ff4565b61010160009054906101000a900473ffffffffffffffffffffffffffffffffffffffff1673ffffffffffffffffffffffffffffffffffffffff16632cb3f9c282846040518363ffffffff1660e01b81526004016111ff929190613f2a565b600060405180830381600087803b15801561121957600080fd5b505af115801561122d573d6000803e3d6000fd5b50505050505050565b60008073ffffffffffffffffffffffffffffffffffffffff168273ffffffffffffffffffffffffffffffffffffffff16036112a6576040517f08c379a000000000000000000000000000000000000000000000000000000000815260040161129d90613fc5565b60405180910390fd5b606860008373ffffffffffffffffffffffffffffffffffffffff1673ffffffffffffffffffffffffffffffffffffffff168152602001908152602001600020549050919050565b6112f5611886565b6112ff6000612211565b565b60fc5481565b600060c960009054906101000a900473ffffffffffffffffffffffffffffffffffffffff16905090565b60606066805461134090613739565b80601f016020809104026020016040519081016040528092919081815260200182805461136c90613739565b80156113b95780601f1061138e576101008083540402835291602001916113b9565b820191906000526020600020905b81548152906001019060200180831161139c57829003601f168201915b5050505050905090565b60003490506000811161140b576040517f08c379a000000000000000000000000000000000000000000000000000000000815260040161140290614031565b60405180910390fd5b6000821180156114215750610102805490508211155b611460576040517f08c379a00000000000000000000000000000000000000000000000000000000081526004016114579061409d565b60405180910390fd5b611468611f05565b60008161010284815481106114805761147f613b0c565b5b90600052602060002090600402016003015461149c91906140ec565b90508061010284815481106114b4576114b3613b0c565b5b90600052602060002090600402016003018190555061010160009054906101000a900473ffffffffffffffffffffffffffffffffffffffff1673ffffffffffffffffffffffffffffffffffffffff166310889aac84836040518363ffffffff1660e01b8152600401611527929190613f2a565b600060405180830381600087803b15801561154157600080fd5b505af1158015611555573d6000803e3d6000fd5b50505050505050565b61010160009054906101000a900473ffffffffffffffffffffffffffffffffffffffff1681565b61159761159061194f565b83836122d7565b5050565b6115ac6115a661194f565b83611a10565b6115eb576040517f08c379a00000000000000000000000000000000000000000000000000000000081526004016115e290613bad565b60405180910390fd5b6115f784848484612443565b50505050565b6060600061160a8361249f565b905060fe8160ff604051602001611623939291906141df565b604051602081830303815290604052915050919050565b60fe805461164790613739565b80601f016020809104026020016040519081016040528092919081815260200182805461167390613739565b80156116c05780601f10611695576101008083540402835291602001916116c0565b820191906000526020600020905b8154815290600101906020018083116116a357829003601f168201915b505050505081565b6000606a60008473ffffffffffffffffffffffffffffffffffffffff1673ffffffffffffffffffffffffffffffffffffffff16815260200190815260200160002060008373ffffffffffffffffffffffffffffffffffffffff1673ffffffffffffffffffffffffffffffffffffffff16815260200190815260200160002060009054906101000a900460ff16905092915050565b611764611886565b600073ffffffffffffffffffffffffffffffffffffffff168173ffffffffffffffffffffffffffffffffffffffff16036117d3576040517f08c379a00000000000000000000000000000000000000000000000000000000081526004016117ca90614282565b60405180910390fd5b6117dc81612211565b50565b61010060009054906101000a900473ffffffffffffffffffffffffffffffffffffffff1681565b60fb5481565b60007f780e9d63000000000000000000000000000000000000000000000000000000007bffffffffffffffffffffffffffffffffffffffffffffffffffffffff1916827bffffffffffffffffffffffffffffffffffffffffffffffffffffffff1916148061187f575061187e8261256d565b5b9050919050565b61188e61194f565b73ffffffffffffffffffffffffffffffffffffffff166118ac611307565b73ffffffffffffffffffffffffffffffffffffffff1614611902576040517f08c379a00000000000000000000000000000000000000000000000000000000081526004016118f9906142ee565b60405180910390fd5b565b61190d8161264f565b61194c576040517f08c379a000000000000000000000000000000000000000000000000000000000815260040161194390613e32565b60405180910390fd5b50565b600033905090565b816069600083815260200190815260200160002060006101000a81548173ffffffffffffffffffffffffffffffffffffffff021916908373ffffffffffffffffffffffffffffffffffffffff160217905550808273ffffffffffffffffffffffffffffffffffffffff166119ca83610f24565b73ffffffffffffffffffffffffffffffffffffffff167f8c5be1e5ebec7d5bd14f71427d1e84f3dd0314c0f7b2291e5b200ac8c7c3b92560405160405180910390a45050565b600080611a1c83610f24565b90508073ffffffffffffffffffffffffffffffffffffffff168473ffffffffffffffffffffffffffffffffffffffff161480611a5e5750611a5d81856116c8565b5b80611a9c57508373ffffffffffffffffffffffffffffffffffffffff16611a84846108bc565b73ffffffffffffffffffffffffffffffffffffffff16145b91505092915050565b8273ffffffffffffffffffffffffffffffffffffffff16611ac582610f24565b73ffffffffffffffffffffffffffffffffffffffff1614611b1b576040517f08c379a0000000000000000000000000000000000000000000000000000000008152600401611b1290614380565b60405180910390fd5b600073ffffffffffffffffffffffffffffffffffffffff168273ffffffffffffffffffffffffffffffffffffffff1603611b8a576040517f08c379a0000000000000000000000000000000000000000000000000000000008152600401611b8190614412565b60405180910390fd5b611b978383836001612690565b8273ffffffffffffffffffffffffffffffffffffffff16611bb782610f24565b73ffffffffffffffffffffffffffffffffffffffff1614611c0d576040517f08c379a0000000000000000000000000000000000000000000000000000000008152600401611c0490614380565b60405180910390fd5b6069600082815260200190815260200160002060006101000a81549073ffffffffffffffffffffffffffffffffffffffff02191690556001606860008573ffffffffffffffffffffffffffffffffffffffff1673ffffffffffffffffffffffffffffffffffffffff168152602001908152602001600020600082825403925050819055506001606860008473ffffffffffffffffffffffffffffffffffffffff1673ffffffffffffffffffffffffffffffffffffffff16815260200190815260200160002060008282540192505081905550816067600083815260200190815260200160002060006101000a81548173ffffffffffffffffffffffffffffffffffffffff021916908373ffffffffffffffffffffffffffffffffffffffff160217905550808273ffffffffffffffffffffffffffffffffffffffff168473ffffffffffffffffffffffffffffffffffffffff167fddf252ad1be2c89b69c2b068fc378daa952ba7f163c4a11628f55a4df523b3ef60405160405180910390a4611d9983838360016126a2565b505050565b6000808273ffffffffffffffffffffffffffffffffffffffff163b119050919050565b600060019054906101000a900460ff16611e10576040517f08c379a0000000000000000000000000000000000000000000000000000000008152600401611e07906144a4565b60405180910390fd5b611e1a82826126a8565b5050565b600060019054906101000a900460ff16611e6d576040517f08c379a0000000000000000000000000000000000000000000000000000000008152600401611e64906144a4565b60405180910390fd5b565b600060019054906101000a900460ff16611ebe576040517f08c379a0000000000000000000000000000000000000000000000000000000008152600401611eb5906144a4565b60405180910390fd5b611ec661271b565b565b60006067600083815260200190815260200160002060009054906101000a900473ffffffffffffffffffffffffffffffffffffffff169050919050565b60003073ffffffffffffffffffffffffffffffffffffffff16319050600061010060009054906101000a900473ffffffffffffffffffffffffffffffffffffffff1673ffffffffffffffffffffffffffffffffffffffff1682604051611f6a906144f5565b60006040518083038185875af1925050503d8060008114611fa7576040519150601f19603f3d011682016040523d82523d6000602084013e611fac565b606091505b5050905080611ff0576040517f08c379a0000000000000000000000000000000000000000000000000000000008152600401611fe790614556565b60405180910390fd5b5050565b600073ffffffffffffffffffffffffffffffffffffffff168273ffffffffffffffffffffffffffffffffffffffff1603612063576040517f08c379a000000000000000000000000000000000000000000000000000000000815260040161205a906145c2565b60405180910390fd5b61206c8161264f565b156120ac576040517f08c379a00000000000000000000000000000000000000000000000000000000081526004016120a39061462e565b60405180910390fd5b6120ba600083836001612690565b6120c38161264f565b15612103576040517f08c379a00000000000000000000000000000000000000000000000000000000081526004016120fa9061462e565b60405180910390fd5b6001606860008473ffffffffffffffffffffffffffffffffffffffff1673ffffffffffffffffffffffffffffffffffffffff16815260200190815260200160002060008282540192505081905550816067600083815260200190815260200160002060006101000a81548173ffffffffffffffffffffffffffffffffffffffff021916908373ffffffffffffffffffffffffffffffffffffffff160217905550808273ffffffffffffffffffffffffffffffffffffffff16600073ffffffffffffffffffffffffffffffffffffffff167fddf252ad1be2c89b69c2b068fc378daa952ba7f163c4a11628f55a4df523b3ef60405160405180910390a461220d6000838360016126a2565b5050565b600060c960009054906101000a900473ffffffffffffffffffffffffffffffffffffffff1690508160c960006101000a81548173ffffffffffffffffffffffffffffffffffffffff021916908373ffffffffffffffffffffffffffffffffffffffff1602179055508173ffffffffffffffffffffffffffffffffffffffff168173ffffffffffffffffffffffffffffffffffffffff167f8be0079c531659141344cd1fd0a4f28419497f9722a3daafe3b4186f6b6457e060405160405180910390a35050565b8173ffffffffffffffffffffffffffffffffffffffff168373ffffffffffffffffffffffffffffffffffffffff1603612345576040517f08c379a000000000000000000000000000000000000000000000000000000000815260040161233c9061469a565b60405180910390fd5b80606a60008573ffffffffffffffffffffffffffffffffffffffff1673ffffffffffffffffffffffffffffffffffffffff16815260200190815260200160002060008473ffffffffffffffffffffffffffffffffffffffff1673ffffffffffffffffffffffffffffffffffffffff16815260200190815260200160002060006101000a81548160ff0219169083151502179055508173ffffffffffffffffffffffffffffffffffffffff168373ffffffffffffffffffffffffffffffffffffffff167f17307eab39ab6107e8899845ad3d59bd9653f200f220920489ca2b5937696c31836040516124369190612fde565b60405180910390a3505050565b61244e848484611aa5565b61245a8484848461277c565b612499576040517f08c379a00000000000000000000000000000000000000000000000000000000081526004016124909061472c565b60405180910390fd5b50505050565b6060600060016124ae84612903565b01905060008167ffffffffffffffff8111156124cd576124cc613014565b5b6040519080825280601f01601f1916602001820160405280156124ff5781602001600182028036833780820191505090505b509050600082602001820190505b600115612562578080600190039150507f3031323334353637383961626364656600000000000000000000000000000000600a86061a8153600a85816125565761255561474c565b5b0494506000850361250d575b819350505050919050565b60007f80ac58cd000000000000000000000000000000000000000000000000000000007bffffffffffffffffffffffffffffffffffffffffffffffffffffffff1916827bffffffffffffffffffffffffffffffffffffffffffffffffffffffff1916148061263857507f5b5e139f000000000000000000000000000000000000000000000000000000007bffffffffffffffffffffffffffffffffffffffffffffffffffffffff1916827bffffffffffffffffffffffffffffffffffffffffffffffffffffffff1916145b80612648575061264782612a56565b5b9050919050565b60008073ffffffffffffffffffffffffffffffffffffffff1661267183611ec8565b73ffffffffffffffffffffffffffffffffffffffff1614159050919050565b61269c84848484612ac0565b50505050565b50505050565b600060019054906101000a900460ff166126f7576040517f08c379a00000000000000000000000000000000000000000000000000000000081526004016126ee906144a4565b60405180910390fd5b81606590816127069190613916565b5080606690816127169190613916565b505050565b600060019054906101000a900460ff1661276a576040517f08c379a0000000000000000000000000000000000000000000000000000000008152600401612761906144a4565b60405180910390fd5b61277a61277561194f565b612211565b565b600061279d8473ffffffffffffffffffffffffffffffffffffffff16611d9e565b156128f6578373ffffffffffffffffffffffffffffffffffffffff1663150b7a026127c661194f565b8786866040518563ffffffff1660e01b81526004016127e894939291906147d0565b6020604051808303816000875af192505050801561282457506040513d601f19601f820116820180604052508101906128219190614831565b60015b6128a6573d8060008114612854576040519150601f19603f3d011682016040523d82523d6000602084013e612859565b606091505b50600081510361289e576040517f08c379a00000000000000000000000000000000000000000000000000000000081526004016128959061472c565b60405180910390fd5b805181602001fd5b63150b7a0260e01b7bffffffffffffffffffffffffffffffffffffffffffffffffffffffff1916817bffffffffffffffffffffffffffffffffffffffffffffffffffffffff1916149150506128fb565b600190505b949350505050565b600080600090507a184f03e93ff9f4daa797ed6e38ed64bf6a1f0100000000000000008310612961577a184f03e93ff9f4daa797ed6e38ed64bf6a1f01000000000000000083816129575761295661474c565b5b0492506040810190505b6d04ee2d6d415b85acef8100000000831061299e576d04ee2d6d415b85acef810000000083816129945761299361474c565b5b0492506020810190505b662386f26fc1000083106129cd57662386f26fc1000083816129c3576129c261474c565b5b0492506010810190505b6305f5e10083106129f6576305f5e10083816129ec576129eb61474c565b5b0492506008810190505b6127108310612a1b576127108381612a1157612a1061474c565b5b0492506004810190505b60648310612a3e5760648381612a3457612a3361474c565b5b0492506002810190505b600a8310612a4d576001810190505b80915050919050565b60007f01ffc9a7000000000000000000000000000000000000000000000000000000007bffffffffffffffffffffffffffffffffffffffffffffffffffffffff1916827bffffffffffffffffffffffffffffffffffffffffffffffffffffffff1916149050919050565b612acc84848484612c1e565b6001811115612b10576040517f08c379a0000000000000000000000000000000000000000000000000000000008152600401612b07906148d0565b60405180910390fd5b6000829050600073ffffffffffffffffffffffffffffffffffffffff168573ffffffffffffffffffffffffffffffffffffffff1603612b5757612b5281612c24565b612b96565b8373ffffffffffffffffffffffffffffffffffffffff168573ffffffffffffffffffffffffffffffffffffffff1614612b9557612b948582612c6d565b5b5b600073ffffffffffffffffffffffffffffffffffffffff168473ffffffffffffffffffffffffffffffffffffffff1603612bd857612bd381612dda565b612c17565b8473ffffffffffffffffffffffffffffffffffffffff168473ffffffffffffffffffffffffffffffffffffffff1614612c1657612c158482612eab565b5b5b5050505050565b50505050565b609980549050609a600083815260200190815260200160002081905550609981908060018154018082558091505060019003906000526020600020016000909190919091505550565b60006001612c7a84611236565b612c8491906148f0565b9050600060986000848152602001908152602001600020549050818114612d69576000609760008673ffffffffffffffffffffffffffffffffffffffff1673ffffffffffffffffffffffffffffffffffffffff168152602001908152602001600020600084815260200190815260200160002054905080609760008773ffffffffffffffffffffffffffffffffffffffff1673ffffffffffffffffffffffffffffffffffffffff168152602001908152602001600020600084815260200190815260200160002081905550816098600083815260200190815260200160002081905550505b6098600084815260200190815260200160002060009055609760008573ffffffffffffffffffffffffffffffffffffffff1673ffffffffffffffffffffffffffffffffffffffff16815260200190815260200160002060008381526020019081526020016000206000905550505050565b60006001609980549050612dee91906148f0565b90506000609a6000848152602001908152602001600020549050600060998381548110612e1e57612e1d613b0c565b5b906000526020600020015490508060998381548110612e4057612e3f613b0c565b5b906000526020600020018190555081609a600083815260200190815260200160002081905550609a6000858152602001908152602001600020600090556099805480612e8f57612e8e614924565b5b6001900381819060005260206000200160009055905550505050565b6000612eb683611236565b905081609760008573ffffffffffffffffffffffffffffffffffffffff1673ffffffffffffffffffffffffffffffffffffffff168152602001908152602001600020600083815260200190815260200160002081905550806098600084815260200190815260200160002081905550505050565b6000604051905090565b600080fd5b600080fd5b60007fffffffff0000000000000000000000000000000000000000000000000000000082169050919050565b612f7381612f3e565b8114612f7e57600080fd5b50565b600081359050612f9081612f6a565b92915050565b600060208284031215612fac57612fab612f34565b5b6000612fba84828501612f81565b91505092915050565b60008115159050919050565b612fd881612fc3565b82525050565b6000602082019050612ff36000830184612fcf565b92915050565b600080fd5b600080fd5b6000601f19601f8301169050919050565b7f4e487b7100000000000000000000000000000000000000000000000000000000600052604160045260246000fd5b61304c82613003565b810181811067ffffffffffffffff8211171561306b5761306a613014565b5b80604052505050565b600061307e612f2a565b905061308a8282613043565b919050565b600067ffffffffffffffff8211156130aa576130a9613014565b5b6130b382613003565b9050602081019050919050565b82818337600083830152505050565b60006130e26130dd8461308f565b613074565b9050828152602081018484840111156130fe576130fd612ffe565b5b6131098482856130c0565b509392505050565b600082601f83011261312657613125612ff9565b5b81356131368482602086016130cf565b91505092915050565b6000806040838503121561315657613155612f34565b5b600083013567ffffffffffffffff81111561317457613173612f39565b5b61318085828601613111565b925050602083013567ffffffffffffffff8111156131a1576131a0612f39565b5b6131ad85828601613111565b9150509250929050565b600081519050919050565b600082825260208201905092915050565b60005b838110156131f15780820151818401526020810190506131d6565b60008484015250505050565b6000613208826131b7565b61321281856131c2565b93506132228185602086016131d3565b61322b81613003565b840191505092915050565b6000602082019050818103600083015261325081846131fd565b905092915050565b6000819050919050565b61326b81613258565b811461327657600080fd5b50565b60008135905061328881613262565b92915050565b6000602082840312156132a4576132a3612f34565b5b60006132b284828501613279565b91505092915050565b600073ffffffffffffffffffffffffffffffffffffffff82169050919050565b60006132e6826132bb565b9050919050565b6132f6816132db565b82525050565b600060208201905061331160008301846132ed565b92915050565b613320816132db565b811461332b57600080fd5b50565b60008135905061333d81613317565b92915050565b6000806040838503121561335a57613359612f34565b5b60006133688582860161332e565b925050602061337985828601613279565b9150509250929050565b61338c81613258565b82525050565b60006080820190506133a76000830187613383565b6133b46020830186613383565b6133c16040830185613383565b6133ce6060830184613383565b95945050505050565b600080600080608085870312156133f1576133f0612f34565b5b60006133ff8782880161332e565b94505060206134108782880161332e565b935050604061342187828801613279565b925050606061343287828801613279565b91505092959194509250565b60006020820190506134536000830184613383565b92915050565b60008060006060848603121561347257613471612f34565b5b60006134808682870161332e565b93505060206134918682870161332e565b92505060406134a286828701613279565b9150509250925092565b600060c0820190506134c16000830189613383565b6134ce6020830188613383565b6134db6040830187613383565b6134e86060830186613383565b6134f56080830185613383565b61350260a0830184613383565b979650505050505050565b60006020828403121561352357613522612f34565b5b60006135318482850161332e565b91505092915050565b61354381612fc3565b811461354e57600080fd5b50565b6000813590506135608161353a565b92915050565b6000806040838503121561357d5761357c612f34565b5b600061358b8582860161332e565b925050602061359c85828601613551565b9150509250929050565b600067ffffffffffffffff8211156135c1576135c0613014565b5b6135ca82613003565b9050602081019050919050565b60006135ea6135e5846135a6565b613074565b90508281526020810184848401111561360657613605612ffe565b5b6136118482856130c0565b509392505050565b600082601f83011261362e5761362d612ff9565b5b813561363e8482602086016135d7565b91505092915050565b6000806000806080858703121561366157613660612f34565b5b600061366f8782880161332e565b94505060206136808782880161332e565b935050604061369187828801613279565b925050606085013567ffffffffffffffff8111156136b2576136b1612f39565b5b6136be87828801613619565b91505092959194509250565b600080604083850312156136e1576136e0612f34565b5b60006136ef8582860161332e565b92505060206137008582860161332e565b9150509250929050565b7f4e487b7100000000000000000000000000000000000000000000000000000000600052602260045260246000fd5b6000600282049050600182168061375157607f821691505b6020821081036137645761376361370a565b5b50919050565b60008190508160005260206000209050919050565b60006020601f8301049050919050565b600082821b905092915050565b6000600883026137cc7fffffffffffffffffffffffffffffffffffffffffffffffffffffffffffffffff8261378f565b6137d6868361378f565b95508019841693508086168417925050509392505050565b6000819050919050565b600061381361380e61380984613258565b6137ee565b613258565b9050919050565b6000819050919050565b61382d836137f8565b6138416138398261381a565b84845461379c565b825550505050565b600090565b613856613849565b613861818484613824565b505050565b5b818110156138855761387a60008261384e565b600181019050613867565b5050565b601f8211156138ca5761389b8161376a565b6138a48461377f565b810160208510156138b3578190505b6138c76138bf8561377f565b830182613866565b50505b505050565b600082821c905092915050565b60006138ed600019846008026138cf565b1980831691505092915050565b600061390683836138dc565b9150826002028217905092915050565b61391f826131b7565b67ffffffffffffffff81111561393857613937613014565b5b6139428254613739565b61394d828285613889565b600060209050601f831160018114613980576000841561396e578287015190505b61397885826138fa565b8655506139e0565b601f19841661398e8661376a565b60005b828110156139b657848901518255600182019150602085019450602081019050613991565b868310156139d357848901516139cf601f8916826138dc565b8355505b6001600288020188555050505b505050505050565b7f4552433732313a20617070726f76616c20746f2063757272656e74206f776e6560008201527f7200000000000000000000000000000000000000000000000000000000000000602082015250565b6000613a446021836131c2565b9150613a4f826139e8565b604082019050919050565b60006020820190508181036000830152613a7381613a37565b9050919050565b7f4552433732313a20617070726f76652063616c6c6572206973206e6f7420746f60008201527f6b656e206f776e6572206f7220617070726f76656420666f7220616c6c000000602082015250565b6000613ad6603d836131c2565b9150613ae182613a7a565b604082019050919050565b60006020820190508181036000830152613b0581613ac9565b9050919050565b7f4e487b7100000000000000000000000000000000000000000000000000000000600052603260045260246000fd5b7f4552433732313a2063616c6c6572206973206e6f7420746f6b656e206f776e6560008201527f72206f7220617070726f76656400000000000000000000000000000000000000602082015250565b6000613b97602d836131c2565b9150613ba282613b3b565b604082019050919050565b60006020820190508181036000830152613bc681613b8a565b9050919050565b7f455243373231456e756d657261626c653a206f776e657220696e646578206f7560008201527f74206f6620626f756e6473000000000000000000000000000000000000000000602082015250565b6000613c29602b836131c2565b9150613c3482613bcd565b604082019050919050565b60006020820190508181036000830152613c5881613c1c565b9050919050565b7f496e697469616c697a61626c653a20636f6e747261637420697320616c72656160008201527f647920696e697469616c697a6564000000000000000000000000000000000000602082015250565b6000613cbb602e836131c2565b9150613cc682613c5f565b604082019050919050565b60006020820190508181036000830152613cea81613cae565b9050919050565b6000819050919050565b600060ff82169050919050565b6000613d23613d1e613d1984613cf1565b6137ee565b613cfb565b9050919050565b613d3381613d08565b82525050565b6000602082019050613d4e6000830184613d2a565b92915050565b7f455243373231456e756d657261626c653a20676c6f62616c20696e646578206f60008201527f7574206f6620626f756e64730000000000000000000000000000000000000000602082015250565b6000613db0602c836131c2565b9150613dbb82613d54565b604082019050919050565b60006020820190508181036000830152613ddf81613da3565b9050919050565b7f4552433732313a20696e76616c696420746f6b656e2049440000000000000000600082015250565b6000613e1c6018836131c2565b9150613e2782613de6565b602082019050919050565b60006020820190508181036000830152613e4b81613e0f565b9050919050565b7f707269636520726571756972656d656e74206661696c00000000000000000000600082015250565b6000613e886016836131c2565b9150613e9382613e52565b602082019050919050565b60006020820190508181036000830152613eb781613e7b565b9050919050565b7f6d6178696d756d20737570706c79207265616368656400000000000000000000600082015250565b6000613ef46016836131c2565b9150613eff82613ebe565b602082019050919050565b60006020820190508181036000830152613f2381613ee7565b9050919050565b6000604082019050613f3f6000830185613383565b613f4c6020830184613383565b9392505050565b7f4552433732313a2061646472657373207a65726f206973206e6f74206120766160008201527f6c6964206f776e65720000000000000000000000000000000000000000000000602082015250565b6000613faf6029836131c2565b9150613fba82613f53565b604082019050919050565b60006020820190508181036000830152613fde81613fa2565b9050919050565b7f6d696e696d756d20697320310000000000000000000000000000000000000000600082015250565b600061401b600c836131c2565b915061402682613fe5565b602082019050919050565b6000602082019050818103600083015261404a8161400e565b9050919050565b7f6f7574206f6620696e6465780000000000000000000000000000000000000000600082015250565b6000614087600c836131c2565b915061409282614051565b602082019050919050565b600060208201905081810360008301526140b68161407a565b9050919050565b7f4e487b7100000000000000000000000000000000000000000000000000000000600052601160045260246000fd5b60006140f782613258565b915061410283613258565b925082820190508082111561411a576141196140bd565b5b92915050565b600081905092915050565b6000815461413881613739565b6141428186614120565b9450600182166000811461415d5760018114614172576141a5565b60ff19831686528115158202860193506141a5565b61417b8561376a565b60005b8381101561419d5781548189015260018201915060208101905061417e565b838801955050505b50505092915050565b60006141b9826131b7565b6141c38185614120565b93506141d38185602086016131d3565b80840191505092915050565b60006141eb828661412b565b91506141f782856141ae565b9150614203828461412b565b9150819050949350505050565b7f4f776e61626c653a206e6577206f776e657220697320746865207a65726f206160008201527f6464726573730000000000000000000000000000000000000000000000000000602082015250565b600061426c6026836131c2565b915061427782614210565b604082019050919050565b6000602082019050818103600083015261429b8161425f565b9050919050565b7f4f776e61626c653a2063616c6c6572206973206e6f7420746865206f776e6572600082015250565b60006142d86020836131c2565b91506142e3826142a2565b602082019050919050565b60006020820190508181036000830152614307816142cb565b9050919050565b7f4552433732313a207472616e736665722066726f6d20696e636f72726563742060008201527f6f776e6572000000000000000000000000000000000000000000000000000000602082015250565b600061436a6025836131c2565b91506143758261430e565b604082019050919050565b600060208201905081810360008301526143998161435d565b9050919050565b7f4552433732313a207472616e7366657220746f20746865207a65726f2061646460008201527f7265737300000000000000000000000000000000000000000000000000000000602082015250565b60006143fc6024836131c2565b9150614407826143a0565b604082019050919050565b6000602082019050818103600083015261442b816143ef565b9050919050565b7f496e697469616c697a61626c653a20636f6e7472616374206973206e6f74206960008201527f6e697469616c697a696e67000000000000000000000000000000000000000000602082015250565b600061448e602b836131c2565b915061449982614432565b604082019050919050565b600060208201905081810360008301526144bd81614481565b9050919050565b600081905092915050565b50565b60006144df6000836144c4565b91506144ea826144cf565b600082019050919050565b6000614500826144d2565b9150819050919050565b7f6661696c656420746f2073656e64000000000000000000000000000000000000600082015250565b6000614540600e836131c2565b915061454b8261450a565b602082019050919050565b6000602082019050818103600083015261456f81614533565b9050919050565b7f4552433732313a206d696e7420746f20746865207a65726f2061646472657373600082015250565b60006145ac6020836131c2565b91506145b782614576565b602082019050919050565b600060208201905081810360008301526145db8161459f565b9050919050565b7f4552433732313a20746f6b656e20616c7265616479206d696e74656400000000600082015250565b6000614618601c836131c2565b9150614623826145e2565b602082019050919050565b600060208201905081810360008301526146478161460b565b9050919050565b7f4552433732313a20617070726f766520746f2063616c6c657200000000000000600082015250565b60006146846019836131c2565b915061468f8261464e565b602082019050919050565b600060208201905081810360008301526146b381614677565b9050919050565b7f4552433732313a207472616e7366657220746f206e6f6e20455243373231526560008201527f63656976657220696d706c656d656e7465720000000000000000000000000000602082015250565b60006147166032836131c2565b9150614721826146ba565b604082019050919050565b6000602082019050818103600083015261474581614709565b9050919050565b7f4e487b7100000000000000000000000000000000000000000000000000000000600052601260045260246000fd5b600081519050919050565b600082825260208201905092915050565b60006147a28261477b565b6147ac8185614786565b93506147bc8185602086016131d3565b6147c581613003565b840191505092915050565b60006080820190506147e560008301876132ed565b6147f260208301866132ed565b6147ff6040830185613383565b81810360608301526148118184614797565b905095945050505050565b60008151905061482b81612f6a565b92915050565b60006020828403121561484757614846612f34565b5b60006148558482850161481c565b91505092915050565b7f455243373231456e756d657261626c653a20636f6e736563757469766520747260008201527f616e7366657273206e6f7420737570706f727465640000000000000000000000602082015250565b60006148ba6035836131c2565b91506148c58261485e565b604082019050919050565b600060208201905081810360008301526148e9816148ad565b9050919050565b60006148fb82613258565b915061490683613258565b925082820390508181111561491e5761491d6140bd565b5b92915050565b7f4e487b7100000000000000000000000000000000000000000000000000000000600052603160045260246000fdfea2646970667358221220601c0263bfa8eab9768d4c9fe0c190943806f9e967ec778408eda2ad3e7405d164736f6c63430008120033",
  "linkReferences": {},
  "deployedLinkReferences": {}
}