{
  "_format": "hh-sol-artifact-1",
  "contractName": "NFTRewardV1",
  "sourceName": "contracts/NFTRewardV1.sol",
  "abi": [
    {
      "inputs": [],
      "stateMutability": "nonpayable",
      "type": "constructor"
    },
    {
      "anonymous": false,
      "inputs": [
        {
          "indexed": true,
          "internalType": "uint256",
          "name": "nftId",
          "type": "uint256"
        },
        {
          "indexed": false,
          "internalType": "uint256",
          "name": "ts",
          "type": "uint256"
        },
        {
          "indexed": false,
          "internalType": "uint256",
          "name": "bp",
          "type": "uint256"
        }
      ],
      "name": "BasePowerSet",
      "type": "event"
    },
    {
      "anonymous": false,
      "inputs": [
        {
          "indexed": true,
          "internalType": "uint256",
          "name": "nftId",
          "type": "uint256"
        },
        {
          "indexed": true,
          "internalType": "address",
          "name": "claimer",
          "type": "address"
        },
        {
          "indexed": false,
          "internalType": "uint256",
          "name": "ts",
          "type": "uint256"
        },
        {
          "indexed": false,
          "internalType": "uint256",
          "name": "startTurn",
          "type": "uint256"
        },
        {
          "indexed": false,
          "internalType": "uint256",
          "name": "currentTurn",
          "type": "uint256"
        },
        {
          "indexed": false,
          "internalType": "uint256",
          "name": "totalReward",
          "type": "uint256"
        }
      ],
      "name": "ClaimReward",
      "type": "event"
    },
    {
      "anonymous": false,
      "inputs": [
        {
          "indexed": true,
          "internalType": "uint256",
          "name": "nftId",
          "type": "uint256"
        },
        {
          "indexed": false,
          "internalType": "uint256",
          "name": "ts",
          "type": "uint256"
        },
        {
          "indexed": false,
          "internalType": "uint256",
          "name": "epPrev",
          "type": "uint256"
        },
        {
          "indexed": false,
          "internalType": "uint256",
          "name": "ep",
          "type": "uint256"
        }
      ],
      "name": "ExtraPowerSet",
      "type": "event"
    },
    {
      "anonymous": false,
      "inputs": [
        {
          "indexed": false,
          "internalType": "uint8",
          "name": "version",
          "type": "uint8"
        }
      ],
      "name": "Initialized",
      "type": "event"
    },
    {
      "anonymous": false,
      "inputs": [
        {
          "indexed": true,
          "internalType": "address",
          "name": "previousOwner",
          "type": "address"
        },
        {
          "indexed": true,
          "internalType": "address",
          "name": "newOwner",
          "type": "address"
        }
      ],
      "name": "OwnershipTransferred",
      "type": "event"
    },
    {
      "inputs": [],
      "name": "ADDRESS_NFT",
      "outputs": [
        {
          "internalType": "address",
          "name": "",
          "type": "address"
        }
      ],
      "stateMutability": "view",
      "type": "function"
    },
    {
      "inputs": [],
      "name": "ADDRESS_POOL",
      "outputs": [
        {
          "internalType": "address",
          "name": "",
          "type": "address"
        }
      ],
      "stateMutability": "view",
      "type": "function"
    },
    {
      "inputs": [],
      "name": "ADDRESS_REWARD_TOKEN",
      "outputs": [
        {
          "internalType": "address",
          "name": "",
          "type": "address"
        }
      ],
      "stateMutability": "view",
      "type": "function"
    },
    {
      "inputs": [],
      "name": "VERSION",
      "outputs": [
        {
          "internalType": "uint256",
          "name": "",
          "type": "uint256"
        }
      ],
      "stateMutability": "view",
      "type": "function"
    },
    {
      "inputs": [],
      "name": "canUpdate",
      "outputs": [
        {
          "internalType": "bool",
          "name": "",
          "type": "bool"
        }
      ],
      "stateMutability": "view",
      "type": "function"
    },
    {
      "inputs": [
        {
          "internalType": "uint256",
          "name": "nftId",
          "type": "uint256"
        }
      ],
      "name": "claimReward",
      "outputs": [],
      "stateMutability": "nonpayable",
      "type": "function"
    },
    {
      "inputs": [],
      "name": "currentTurn",
      "outputs": [
        {
          "internalType": "uint256",
          "name": "",
          "type": "uint256"
        }
      ],
      "stateMutability": "view",
      "type": "function"
    },
    {
      "inputs": [],
      "name": "getData",
      "outputs": [
        {
          "internalType": "uint256",
          "name": "",
          "type": "uint256"
        },
        {
          "internalType": "uint256",
          "name": "",
          "type": "uint256"
        },
        {
          "internalType": "uint256",
          "name": "",
          "type": "uint256"
        },
        {
          "internalType": "uint256",
          "name": "",
          "type": "uint256"
        },
        {
          "internalType": "uint256",
          "name": "",
          "type": "uint256"
        },
        {
          "internalType": "uint256",
          "name": "",
          "type": "uint256"
        }
      ],
      "stateMutability": "view",
      "type": "function"
    },
    {
      "inputs": [
        {
          "internalType": "uint256",
          "name": "index",
          "type": "uint256"
        }
      ],
      "name": "getSessionData",
      "outputs": [
        {
          "internalType": "uint256",
          "name": "",
          "type": "uint256"
        },
        {
          "internalType": "uint256",
          "name": "",
          "type": "uint256"
        },
        {
          "internalType": "uint256",
          "name": "",
          "type": "uint256"
        },
        {
          "internalType": "uint256",
          "name": "",
          "type": "uint256"
        },
        {
          "internalType": "uint256",
          "name": "",
          "type": "uint256"
        },
        {
          "internalType": "uint256",
          "name": "",
          "type": "uint256"
        }
      ],
      "stateMutability": "view",
      "type": "function"
    },
    {
      "inputs": [
        {
          "internalType": "uint256",
          "name": "nftId",
          "type": "uint256"
        }
      ],
      "name": "getUnclaimedReward",
      "outputs": [
        {
          "internalType": "uint256",
          "name": "",
          "type": "uint256"
        },
        {
          "internalType": "uint256",
          "name": "",
          "type": "uint256"
        },
        {
          "internalType": "uint256",
          "name": "",
          "type": "uint256"
        }
      ],
      "stateMutability": "view",
      "type": "function"
    },
    {
      "inputs": [],
      "name": "initialize",
      "outputs": [],
      "stateMutability": "nonpayable",
      "type": "function"
    },
    {
      "inputs": [
        {
          "internalType": "uint256",
          "name": "",
          "type": "uint256"
        }
      ],
      "name": "nftId2basePower",
      "outputs": [
        {
          "internalType": "uint256",
          "name": "",
          "type": "uint256"
        }
      ],
      "stateMutability": "view",
      "type": "function"
    },
    {
      "inputs": [
        {
          "internalType": "uint256",
          "name": "",
          "type": "uint256"
        }
      ],
      "name": "nftId2extraPower",
      "outputs": [
        {
          "internalType": "uint256",
          "name": "",
          "type": "uint256"
        }
      ],
      "stateMutability": "view",
      "type": "function"
    },
    {
      "inputs": [
        {
          "internalType": "uint256",
          "name": "",
          "type": "uint256"
        }
      ],
      "name": "nftId2turn",
      "outputs": [
        {
          "internalType": "uint256",
          "name": "",
          "type": "uint256"
        }
      ],
      "stateMutability": "view",
      "type": "function"
    },
    {
      "inputs": [],
      "name": "owner",
      "outputs": [
        {
          "internalType": "address",
          "name": "",
          "type": "address"
        }
      ],
      "stateMutability": "view",
      "type": "function"
    },
    {
      "inputs": [],
      "name": "renounceOwnership",
      "outputs": [],
      "stateMutability": "nonpayable",
      "type": "function"
    },
    {
      "inputs": [
        {
          "internalType": "uint256",
          "name": "nftId",
          "type": "uint256"
        },
        {
          "internalType": "uint256",
          "name": "stakeAmount",
          "type": "uint256"
        }
      ],
      "name": "setBase",
      "outputs": [],
      "stateMutability": "nonpayable",
      "type": "function"
    },
    {
      "inputs": [
        {
          "internalType": "uint256",
          "name": "nftId",
          "type": "uint256"
        },
        {
          "internalType": "uint256",
          "name": "stakeAmount",
          "type": "uint256"
        }
      ],
      "name": "setExtra",
      "outputs": [],
      "stateMutability": "nonpayable",
      "type": "function"
    },
    {
      "inputs": [
        {
          "internalType": "address",
          "name": "addrN",
          "type": "address"
        },
        {
          "internalType": "address",
          "name": "addrRT",
          "type": "address"
        },
        {
          "internalType": "address",
          "name": "addrP",
          "type": "address"
        }
      ],
      "name": "setup",
      "outputs": [],
      "stateMutability": "nonpayable",
      "type": "function"
    },
    {
      "inputs": [],
      "name": "totalBasePower",
      "outputs": [
        {
          "internalType": "uint256",
          "name": "",
          "type": "uint256"
        }
      ],
      "stateMutability": "view",
      "type": "function"
    },
    {
      "inputs": [],
      "name": "totalExtraPower",
      "outputs": [
        {
          "internalType": "uint256",
          "name": "",
          "type": "uint256"
        }
      ],
      "stateMutability": "view",
      "type": "function"
    },
    {
      "inputs": [
        {
          "internalType": "address",
          "name": "newOwner",
          "type": "address"
        }
      ],
      "name": "transferOwnership",
      "outputs": [],
      "stateMutability": "nonpayable",
      "type": "function"
    },
    {
      "inputs": [
        {
          "internalType": "uint256",
          "name": "reward",
          "type": "uint256"
        }
      ],
      "name": "updateSession",
      "outputs": [],
      "stateMutability": "nonpayable",
      "type": "function"
    }
  ],
  "bytecode": "0x60806040523480156200001157600080fd5b50620000226200002860201b60201c565b620001d2565b600060019054906101000a900460ff16156200007b576040517f08c379a0000000000000000000000000000000000000000000000000000000008152600401620000729062000175565b60405180910390fd5b60ff801660008054906101000a900460ff1660ff1614620000ec5760ff6000806101000a81548160ff021916908360ff1602179055507f7f26b83ff96e1f2b6a682f133852f6798a09c465da95921460cefb384740249860ff604051620000e39190620001b5565b60405180910390a15b565b600082825260208201905092915050565b7f496e697469616c697a61626c653a20636f6e747261637420697320696e69746960008201527f616c697a696e6700000000000000000000000000000000000000000000000000602082015250565b60006200015d602783620000ee565b91506200016a82620000ff565b604082019050919050565b6000602082019050818103600083015262000190816200014e565b9050919050565b600060ff82169050919050565b620001af8162000197565b82525050565b6000602082019050620001cc6000830184620001a4565b92915050565b611cb180620001e26000396000f3fe608060405234801561001057600080fd5b506004361061014d5760003560e01c80638da5cb5b116100c3578063cdc4a65f1161007c578063cdc4a65f14610386578063deb61286146103a4578063e5f330e8146103c2578063f2fde38b146103de578063fb11fe16146103fa578063ffa1ad74146104185761014d565b80638da5cb5b146102c257806393eb6f0f146102e05780639e4f5b1014610310578063a17a26851461032e578063a8aad0391461034c578063ae169a501461036a5761014d565b8063439fddf711610115578063439fddf714610212578063460e412214610242578063607d199214610274578063715018a61461029257806377b8b1c71461029c5780638129fc1c146102b85761014d565b80630a6502531461015257806310889aac146101825780632cb3f9c21461019e578063346582c6146101ba5780633bc5de30146101ef575b600080fd5b61016c60048036038101906101679190611348565b610436565b6040516101799190611384565b60405180910390f35b61019c6004803603810190610197919061139f565b61044e565b005b6101b860048036038101906101b3919061139f565b61058f565b005b6101d460048036038101906101cf9190611348565b61066d565b6040516101e6969594939291906113df565b60405180910390f35b6101f761076f565b604051610209969594939291906113df565b60405180910390f35b61022c60048036038101906102279190611348565b6107a0565b6040516102399190611384565b60405180910390f35b61025c60048036038101906102579190611348565b6107b8565b60405161026b93929190611440565b60405180910390f35b61027c61090f565b60405161028991906114b8565b60405180910390f35b61029a610935565b005b6102b660048036038101906102b191906114ff565b610949565b005b6102c0610a30565b005b6102ca610b6e565b6040516102d791906114b8565b60405180910390f35b6102fa60048036038101906102f59190611348565b610b98565b6040516103079190611384565b60405180910390f35b610318610bb0565b6040516103259190611384565b60405180910390f35b610336610bb6565b604051610343919061156d565b60405180910390f35b610354610bc2565b60405161036191906114b8565b60405180910390f35b610384600480360381019061037f9190611348565b610be8565b005b61038e610e83565b60405161039b9190611384565b60405180910390f35b6103ac610e89565b6040516103b99190611384565b60405180910390f35b6103dc60048036038101906103d79190611348565b610e8f565b005b6103f860048036038101906103f39190611588565b611035565b005b6104026110b8565b60405161040f91906114b8565b60405180910390f35b6104206110de565b60405161042d9190611384565b60405180910390f35b606e6020528060005260406000206000915090505481565b606660009054906101000a900473ffffffffffffffffffffffffffffffffffffffff1673ffffffffffffffffffffffffffffffffffffffff163373ffffffffffffffffffffffffffffffffffffffff16146104a857600080fd5b606a54606d600084815260200190815260200160002054146104ff576040517f08c379a00000000000000000000000000000000000000000000000000000000081526004016104f690611612565b60405180910390fd5b6000606f60008481526020019081526020016000205490508181606c546105269190611661565b6105309190611695565b606c8190555081606f600085815260200190815260200160002081905550827fd69a05ef1d3375b7ed05442d86eb881048f94f6c54c79fec4f0e651e315991e442838560405161058293929190611440565b60405180910390a2505050565b606660009054906101000a900473ffffffffffffffffffffffffffffffffffffffff1673ffffffffffffffffffffffffffffffffffffffff163373ffffffffffffffffffffffffffffffffffffffff16146105e957600080fd5b80606b546105f79190611695565b606b81905550606a54606d60008481526020019081526020016000208190555080606e600084815260200190815260200160002081905550817f79ab3819b946f794743b7ef54f7c1c64bb29f21a7d47c49a463432e204355dcb42836040516106619291906116c9565b60405180910390a25050565b6000806000806000806069878154811061068a576106896116f2565b5b906000526020600020906006020160000154606988815481106106b0576106af6116f2565b5b906000526020600020906006020160010154606989815481106106d6576106d56116f2565b5b90600052602060002090600602016002015460698a815481106106fc576106fb6116f2565b5b90600052602060002090600602016003015460698b81548110610722576107216116f2565b5b90600052602060002090600602016004015460698c81548110610748576107476116f2565b5b90600052602060002090600602016005015495509550955095509550955091939550919395565b600080600080600080606554606980549050606a54606b54606c546000955095509550955095509550909192939495565b606f6020528060005260406000206000915090505481565b600080600080606d60008681526020019081526020016000205490506000606e60008781526020019081526020016000205490506000606f600088815260200190815260200160002054905060008060008590505b606a548110156108ee5760006069828154811061082d5761082c6116f2565b5b90600052602060002090600602016002015490506000670de0b6b3a764000087836108589190611721565b6108629190611792565b905080856108709190611695565b945060008611156108d957600060698481548110610891576108906116f2565b5b90600052602060002090600602016004015490506000670de0b6b3a764000088836108bc9190611721565b6108c69190611792565b905080866108d49190611695565b955050505b505080806108e6906117c3565b91505061080d565b5080826108fb9190611695565b828297509750975050505050509193909250565b606660009054906101000a900473ffffffffffffffffffffffffffffffffffffffff1681565b61093d6110e4565b6109476000611162565b565b6109516110e4565b60006065541461096057600080fd5b600160658190555082606660006101000a81548173ffffffffffffffffffffffffffffffffffffffff021916908373ffffffffffffffffffffffffffffffffffffffff16021790555081606760006101000a81548173ffffffffffffffffffffffffffffffffffffffff021916908373ffffffffffffffffffffffffffffffffffffffff16021790555080606860006101000a81548173ffffffffffffffffffffffffffffffffffffffff021916908373ffffffffffffffffffffffffffffffffffffffff160217905550505050565b60008060019054906101000a900460ff16159050808015610a615750600160008054906101000a900460ff1660ff16105b80610a8e5750610a7030611228565b158015610a8d5750600160008054906101000a900460ff1660ff16145b5b610acd576040517f08c379a0000000000000000000000000000000000000000000000000000000008152600401610ac49061187d565b60405180910390fd5b60016000806101000a81548160ff021916908360ff1602179055508015610b0a576001600060016101000a81548160ff0219169083151502179055505b610b1261124b565b8015610b6b5760008060016101000a81548160ff0219169083151502179055507f7f26b83ff96e1f2b6a682f133852f6798a09c465da95921460cefb38474024986001604051610b6291906118ef565b60405180910390a15b50565b6000603360009054906101000a900473ffffffffffffffffffffffffffffffffffffffff16905090565b606d6020528060005260406000206000915090505481565b606b5481565b600080606b5411905090565b606760009054906101000a900473ffffffffffffffffffffffffffffffffffffffff1681565b6000606660009054906101000a900473ffffffffffffffffffffffffffffffffffffffff1673ffffffffffffffffffffffffffffffffffffffff16636352211e836040518263ffffffff1660e01b8152600401610c459190611384565b602060405180830381865afa158015610c62573d6000803e3d6000fd5b505050506040513d601f19601f82011682018060405250810190610c86919061191f565b90508073ffffffffffffffffffffffffffffffffffffffff163373ffffffffffffffffffffffffffffffffffffffff1614610cf6576040517f08c379a0000000000000000000000000000000000000000000000000000000008152600401610ced90611998565b60405180910390fd5b6000606d6000848152602001908152602001600020549050606a548110610d52576040517f08c379a0000000000000000000000000000000000000000000000000000000008152600401610d4990611a04565b60405180910390fd5b6000610d5d846107b8565b50509050606a54606d6000868152602001908152602001600020819055506000811115610e2657606760009054906101000a900473ffffffffffffffffffffffffffffffffffffffff1673ffffffffffffffffffffffffffffffffffffffff1663a9059cbb33836040518363ffffffff1660e01b8152600401610de1929190611a24565b6020604051808303816000875af1158015610e00573d6000803e3d6000fd5b505050506040513d601f19601f82011682018060405250810190610e249190611a79565b505b8273ffffffffffffffffffffffffffffffffffffffff16847fbafae844b508726cfec4bcf9d26964f9dcab95e9a52157cee956e19c0df86e2b4285606a5486604051610e759493929190611aa6565b60405180910390a350505050565b606c5481565b606a5481565b606860009054906101000a900473ffffffffffffffffffffffffffffffffffffffff1673ffffffffffffffffffffffffffffffffffffffff163373ffffffffffffffffffffffffffffffffffffffff1614610ee957600080fd5b610ef1610bb6565b610efa57600080fd5b6000819050600080606c541115610f3557600a600784610f1a9190611721565b610f249190611792565b90508083610f329190611661565b91505b6000606b54670de0b6b3a764000084610f4e9190611721565b610f589190611792565b90506000606c54670de0b6b3a764000084610f739190611721565b610f7d9190611792565b90506001606a54610f8e9190611695565b606a8190555060696040518060c00160405280878152602001606b548152602001848152602001606c548152602001838152602001428152509080600181540180825580915050600190039060005260206000209060060201600090919091909150600082015181600001556020820151816001015560408201518160020155606082015181600301556080820151816004015560a0820151816005015550505050505050565b61103d6110e4565b600073ffffffffffffffffffffffffffffffffffffffff168173ffffffffffffffffffffffffffffffffffffffff16036110ac576040517f08c379a00000000000000000000000000000000000000000000000000000000081526004016110a390611b5d565b60405180910390fd5b6110b581611162565b50565b606860009054906101000a900473ffffffffffffffffffffffffffffffffffffffff1681565b60655481565b6110ec6112a4565b73ffffffffffffffffffffffffffffffffffffffff1661110a610b6e565b73ffffffffffffffffffffffffffffffffffffffff1614611160576040517f08c379a000000000000000000000000000000000000000000000000000000000815260040161115790611bc9565b60405180910390fd5b565b6000603360009054906101000a900473ffffffffffffffffffffffffffffffffffffffff16905081603360006101000a81548173ffffffffffffffffffffffffffffffffffffffff021916908373ffffffffffffffffffffffffffffffffffffffff1602179055508173ffffffffffffffffffffffffffffffffffffffff168173ffffffffffffffffffffffffffffffffffffffff167f8be0079c531659141344cd1fd0a4f28419497f9722a3daafe3b4186f6b6457e060405160405180910390a35050565b6000808273ffffffffffffffffffffffffffffffffffffffff163b119050919050565b600060019054906101000a900460ff1661129a576040517f08c379a000000000000000000000000000000000000000000000000000000000815260040161129190611c5b565b60405180910390fd5b6112a26112ac565b565b600033905090565b600060019054906101000a900460ff166112fb576040517f08c379a00000000000000000000000000000000000000000000000000000000081526004016112f290611c5b565b60405180910390fd5b61130b6113066112a4565b611162565b565b600080fd5b6000819050919050565b61132581611312565b811461133057600080fd5b50565b6000813590506113428161131c565b92915050565b60006020828403121561135e5761135d61130d565b5b600061136c84828501611333565b91505092915050565b61137e81611312565b82525050565b60006020820190506113996000830184611375565b92915050565b600080604083850312156113b6576113b561130d565b5b60006113c485828601611333565b92505060206113d585828601611333565b9150509250929050565b600060c0820190506113f46000830189611375565b6114016020830188611375565b61140e6040830187611375565b61141b6060830186611375565b6114286080830185611375565b61143560a0830184611375565b979650505050505050565b60006060820190506114556000830186611375565b6114626020830185611375565b61146f6040830184611375565b949350505050565b600073ffffffffffffffffffffffffffffffffffffffff82169050919050565b60006114a282611477565b9050919050565b6114b281611497565b82525050565b60006020820190506114cd60008301846114a9565b92915050565b6114dc81611497565b81146114e757600080fd5b50565b6000813590506114f9816114d3565b92915050565b6000806000606084860312156115185761151761130d565b5b6000611526868287016114ea565b9350506020611537868287016114ea565b9250506040611548868287016114ea565b9150509250925092565b60008115159050919050565b61156781611552565b82525050565b6000602082019050611582600083018461155e565b92915050565b60006020828403121561159e5761159d61130d565b5b60006115ac848285016114ea565b91505092915050565b600082825260208201905092915050565b7f686176652072657761726420756e636c61696d65640000000000000000000000600082015250565b60006115fc6015836115b5565b9150611607826115c6565b602082019050919050565b6000602082019050818103600083015261162b816115ef565b9050919050565b7f4e487b7100000000000000000000000000000000000000000000000000000000600052601160045260246000fd5b600061166c82611312565b915061167783611312565b925082820390508181111561168f5761168e611632565b5b92915050565b60006116a082611312565b91506116ab83611312565b92508282019050808211156116c3576116c2611632565b5b92915050565b60006040820190506116de6000830185611375565b6116eb6020830184611375565b9392505050565b7f4e487b7100000000000000000000000000000000000000000000000000000000600052603260045260246000fd5b600061172c82611312565b915061173783611312565b925082820261174581611312565b9150828204841483151761175c5761175b611632565b5b5092915050565b7f4e487b7100000000000000000000000000000000000000000000000000000000600052601260045260246000fd5b600061179d82611312565b91506117a883611312565b9250826117b8576117b7611763565b5b828204905092915050565b60006117ce82611312565b91507fffffffffffffffffffffffffffffffffffffffffffffffffffffffffffffffff8203611800576117ff611632565b5b600182019050919050565b7f496e697469616c697a61626c653a20636f6e747261637420697320616c72656160008201527f647920696e697469616c697a6564000000000000000000000000000000000000602082015250565b6000611867602e836115b5565b91506118728261180b565b604082019050919050565b600060208201905081810360008301526118968161185a565b9050919050565b6000819050919050565b600060ff82169050919050565b6000819050919050565b60006118d96118d46118cf8461189d565b6118b4565b6118a7565b9050919050565b6118e9816118be565b82525050565b600060208201905061190460008301846118e0565b92915050565b600081519050611919816114d3565b92915050565b6000602082840312156119355761193461130d565b5b60006119438482850161190a565b91505092915050565b7f6e6f74206f776e65720000000000000000000000000000000000000000000000600082015250565b60006119826009836115b5565b915061198d8261194c565b602082019050919050565b600060208201905081810360008301526119b181611975565b9050919050565b7f72657761726420616c726561647920636c61696d656400000000000000000000600082015250565b60006119ee6016836115b5565b91506119f9826119b8565b602082019050919050565b60006020820190508181036000830152611a1d816119e1565b9050919050565b6000604082019050611a3960008301856114a9565b611a466020830184611375565b9392505050565b611a5681611552565b8114611a6157600080fd5b50565b600081519050611a7381611a4d565b92915050565b600060208284031215611a8f57611a8e61130d565b5b6000611a9d84828501611a64565b91505092915050565b6000608082019050611abb6000830187611375565b611ac86020830186611375565b611ad56040830185611375565b611ae26060830184611375565b95945050505050565b7f4f776e61626c653a206e6577206f776e657220697320746865207a65726f206160008201527f6464726573730000000000000000000000000000000000000000000000000000602082015250565b6000611b476026836115b5565b9150611b5282611aeb565b604082019050919050565b60006020820190508181036000830152611b7681611b3a565b9050919050565b7f4f776e61626c653a2063616c6c6572206973206e6f7420746865206f776e6572600082015250565b6000611bb36020836115b5565b9150611bbe82611b7d565b602082019050919050565b60006020820190508181036000830152611be281611ba6565b9050919050565b7f496e697469616c697a61626c653a20636f6e7472616374206973206e6f74206960008201527f6e697469616c697a696e67000000000000000000000000000000000000000000602082015250565b6000611c45602b836115b5565b9150611c5082611be9565b604082019050919050565b60006020820190508181036000830152611c7481611c38565b905091905056fea264697066735822122015a29f764a25c4724cd6ca55addd9e1d5f4f59904e9cc3c7db9130d35d897cd364736f6c63430008120033",
  "linkReferences": {},
  "deployedLinkReferences": {}
}