{
  "_format": "hh-sol-artifact-1",
  "contractName": "VaultV1",
  "sourceName": "contracts/VaultV1.sol",
  "abi": [
    {
      "inputs": [],
      "stateMutability": "nonpayable",
      "type": "constructor"
    },
    {
      "anonymous": false,
      "inputs": [
        {
          "indexed": true,
          "internalType": "address",
          "name": "claimer",
          "type": "address"
        },
        {
          "indexed": false,
          "internalType": "uint256",
          "name": "ts",
          "type": "uint256"
        },
        {
          "indexed": false,
          "internalType": "uint256",
          "name": "startTurn",
          "type": "uint256"
        },
        {
          "indexed": false,
          "internalType": "uint256",
          "name": "currentTurn",
          "type": "uint256"
        },
        {
          "indexed": false,
          "internalType": "uint256",
          "name": "totalReward",
          "type": "uint256"
        }
      ],
      "name": "ClaimReward",
      "type": "event"
    },
    {
      "anonymous": false,
      "inputs": [
        {
          "indexed": false,
          "internalType": "uint8",
          "name": "version",
          "type": "uint8"
        }
      ],
      "name": "Initialized",
      "type": "event"
    },
    {
      "anonymous": false,
      "inputs": [
        {
          "indexed": true,
          "internalType": "address",
          "name": "previousOwner",
          "type": "address"
        },
        {
          "indexed": true,
          "internalType": "address",
          "name": "newOwner",
          "type": "address"
        }
      ],
      "name": "OwnershipTransferred",
      "type": "event"
    },
    {
      "anonymous": false,
      "inputs": [
        {
          "indexed": true,
          "internalType": "address",
          "name": "user",
          "type": "address"
        },
        {
          "indexed": false,
          "internalType": "uint256",
          "name": "ts",
          "type": "uint256"
        },
        {
          "indexed": false,
          "internalType": "uint256",
          "name": "prevAmount",
          "type": "uint256"
        },
        {
          "indexed": false,
          "internalType": "uint256",
          "name": "nextAmount",
          "type": "uint256"
        },
        {
          "indexed": false,
          "internalType": "uint256",
          "name": "unstakeTs",
          "type": "uint256"
        }
      ],
      "name": "StakeSet",
      "type": "event"
    },
    {
      "anonymous": false,
      "inputs": [
        {
          "indexed": true,
          "internalType": "address",
          "name": "user",
          "type": "address"
        },
        {
          "indexed": false,
          "internalType": "uint256",
          "name": "ts",
          "type": "uint256"
        },
        {
          "indexed": false,
          "internalType": "uint256",
          "name": "prevAmount",
          "type": "uint256"
        },
        {
          "indexed": false,
          "internalType": "uint256",
          "name": "nextAmount",
          "type": "uint256"
        },
        {
          "indexed": false,
          "internalType": "uint256",
          "name": "withdrawTs",
          "type": "uint256"
        }
      ],
      "name": "UnstakeSet",
      "type": "event"
    },
    {
      "anonymous": false,
      "inputs": [
        {
          "indexed": true,
          "internalType": "address",
          "name": "user",
          "type": "address"
        },
        {
          "indexed": false,
          "internalType": "uint256",
          "name": "ts",
          "type": "uint256"
        },
        {
          "indexed": false,
          "internalType": "uint256",
          "name": "total",
          "type": "uint256"
        }
      ],
      "name": "WithdrawSet",
      "type": "event"
    },
    {
      "inputs": [],
      "name": "ADDRESS_POOL",
      "outputs": [
        {
          "internalType": "address",
          "name": "",
          "type": "address"
        }
      ],
      "stateMutability": "view",
      "type": "function"
    },
    {
      "inputs": [],
      "name": "ADDRESS_REWARD_TOKEN",
      "outputs": [
        {
          "internalType": "address",
          "name": "",
          "type": "address"
        }
      ],
      "stateMutability": "view",
      "type": "function"
    },
    {
      "inputs": [],
      "name": "ADDRESS_STAKE_TOKEN",
      "outputs": [
        {
          "internalType": "address",
          "name": "",
          "type": "address"
        }
      ],
      "stateMutability": "view",
      "type": "function"
    },
    {
      "inputs": [],
      "name": "VERSION",
      "outputs": [
        {
          "internalType": "uint256",
          "name": "",
          "type": "uint256"
        }
      ],
      "stateMutability": "view",
      "type": "function"
    },
    {
      "inputs": [],
      "name": "canUpdate",
      "outputs": [
        {
          "internalType": "bool",
          "name": "",
          "type": "bool"
        }
      ],
      "stateMutability": "view",
      "type": "function"
    },
    {
      "inputs": [],
      "name": "claimReward",
      "outputs": [],
      "stateMutability": "nonpayable",
      "type": "function"
    },
    {
      "inputs": [],
      "name": "currentTotalStake",
      "outputs": [
        {
          "internalType": "uint256",
          "name": "",
          "type": "uint256"
        }
      ],
      "stateMutability": "view",
      "type": "function"
    },
    {
      "inputs": [],
      "name": "currentTurn",
      "outputs": [
        {
          "internalType": "uint256",
          "name": "",
          "type": "uint256"
        }
      ],
      "stateMutability": "view",
      "type": "function"
    },
    {
      "inputs": [],
      "name": "getData",
      "outputs": [
        {
          "internalType": "uint256",
          "name": "",
          "type": "uint256"
        },
        {
          "internalType": "uint256",
          "name": "",
          "type": "uint256"
        },
        {
          "internalType": "uint256",
          "name": "",
          "type": "uint256"
        },
        {
          "internalType": "uint256",
          "name": "",
          "type": "uint256"
        },
        {
          "internalType": "uint256",
          "name": "",
          "type": "uint256"
        },
        {
          "internalType": "uint256",
          "name": "",
          "type": "uint256"
        }
      ],
      "stateMutability": "view",
      "type": "function"
    },
    {
      "inputs": [
        {
          "internalType": "uint256",
          "name": "index",
          "type": "uint256"
        }
      ],
      "name": "getSessionData",
      "outputs": [
        {
          "internalType": "uint256",
          "name": "",
          "type": "uint256"
        },
        {
          "internalType": "uint256",
          "name": "",
          "type": "uint256"
        },
        {
          "internalType": "uint256",
          "name": "",
          "type": "uint256"
        },
        {
          "internalType": "uint256",
          "name": "",
          "type": "uint256"
        }
      ],
      "stateMutability": "view",
      "type": "function"
    },
    {
      "inputs": [
        {
          "internalType": "address",
          "name": "user",
          "type": "address"
        }
      ],
      "name": "getUnclaimedReward",
      "outputs": [
        {
          "internalType": "uint256",
          "name": "",
          "type": "uint256"
        }
      ],
      "stateMutability": "view",
      "type": "function"
    },
    {
      "inputs": [
        {
          "internalType": "address",
          "name": "user",
          "type": "address"
        }
      ],
      "name": "getUserData",
      "outputs": [
        {
          "internalType": "uint256",
          "name": "",
          "type": "uint256"
        },
        {
          "internalType": "uint256",
          "name": "",
          "type": "uint256"
        },
        {
          "internalType": "uint256",
          "name": "",
          "type": "uint256"
        },
        {
          "internalType": "uint256",
          "name": "",
          "type": "uint256"
        },
        {
          "internalType": "uint256",
          "name": "",
          "type": "uint256"
        }
      ],
      "stateMutability": "view",
      "type": "function"
    },
    {
      "inputs": [],
      "name": "initialize",
      "outputs": [],
      "stateMutability": "nonpayable",
      "type": "function"
    },
    {
      "inputs": [],
      "name": "lockingTime",
      "outputs": [
        {
          "internalType": "uint256",
          "name": "",
          "type": "uint256"
        }
      ],
      "stateMutability": "view",
      "type": "function"
    },
    {
      "inputs": [],
      "name": "owner",
      "outputs": [
        {
          "internalType": "address",
          "name": "",
          "type": "address"
        }
      ],
      "stateMutability": "view",
      "type": "function"
    },
    {
      "inputs": [],
      "name": "renounceOwnership",
      "outputs": [],
      "stateMutability": "nonpayable",
      "type": "function"
    },
    {
      "inputs": [
        {
          "internalType": "address",
          "name": "addrST",
          "type": "address"
        },
        {
          "internalType": "address",
          "name": "addrRT",
          "type": "address"
        },
        {
          "internalType": "address",
          "name": "addrP",
          "type": "address"
        },
        {
          "internalType": "uint256",
          "name": "lockingT",
          "type": "uint256"
        },
        {
          "internalType": "uint256",
          "name": "unlockingT",
          "type": "uint256"
        }
      ],
      "name": "setup",
      "outputs": [],
      "stateMutability": "nonpayable",
      "type": "function"
    },
    {
      "inputs": [
        {
          "internalType": "uint256",
          "name": "stakeAmount",
          "type": "uint256"
        }
      ],
      "name": "stakeToken",
      "outputs": [],
      "stateMutability": "nonpayable",
      "type": "function"
    },
    {
      "inputs": [
        {
          "internalType": "address",
          "name": "newOwner",
          "type": "address"
        }
      ],
      "name": "transferOwnership",
      "outputs": [],
      "stateMutability": "nonpayable",
      "type": "function"
    },
    {
      "inputs": [],
      "name": "unlockingTime",
      "outputs": [
        {
          "internalType": "uint256",
          "name": "",
          "type": "uint256"
        }
      ],
      "stateMutability": "view",
      "type": "function"
    },
    {
      "inputs": [
        {
          "internalType": "uint256",
          "name": "unstakeAmount",
          "type": "uint256"
        }
      ],
      "name": "unstakeToken",
      "outputs": [],
      "stateMutability": "nonpayable",
      "type": "function"
    },
    {
      "inputs": [
        {
          "internalType": "uint256",
          "name": "reward",
          "type": "uint256"
        }
      ],
      "name": "updateSession",
      "outputs": [],
      "stateMutability": "nonpayable",
      "type": "function"
    },
    {
      "inputs": [
        {
          "internalType": "address",
          "name": "",
          "type": "address"
        }
      ],
      "name": "user2allowUnstakeTime",
      "outputs": [
        {
          "internalType": "uint256",
          "name": "",
          "type": "uint256"
        }
      ],
      "stateMutability": "view",
      "type": "function"
    },
    {
      "inputs": [
        {
          "internalType": "address",
          "name": "",
          "type": "address"
        }
      ],
      "name": "user2allowWithdrawTime",
      "outputs": [
        {
          "internalType": "uint256",
          "name": "",
          "type": "uint256"
        }
      ],
      "stateMutability": "view",
      "type": "function"
    },
    {
      "inputs": [
        {
          "internalType": "address",
          "name": "",
          "type": "address"
        }
      ],
      "name": "user2pendingWithdraw",
      "outputs": [
        {
          "internalType": "uint256",
          "name": "",
          "type": "uint256"
        }
      ],
      "stateMutability": "view",
      "type": "function"
    },
    {
      "inputs": [
        {
          "internalType": "address",
          "name": "",
          "type": "address"
        }
      ],
      "name": "user2stake",
      "outputs": [
        {
          "internalType": "uint256",
          "name": "",
          "type": "uint256"
        }
      ],
      "stateMutability": "view",
      "type": "function"
    },
    {
      "inputs": [
        {
          "internalType": "address",
          "name": "",
          "type": "address"
        }
      ],
      "name": "user2turn",
      "outputs": [
        {
          "internalType": "uint256",
          "name": "",
          "type": "uint256"
        }
      ],
      "stateMutability": "view",
      "type": "function"
    },
    {
      "inputs": [],
      "name": "withdrawToken",
      "outputs": [],
      "stateMutability": "nonpayable",
      "type": "function"
    }
  ],
  "bytecode": "0x60806040523480156200001157600080fd5b50620000226200002860201b60201c565b620001d2565b600060019054906101000a900460ff16156200007b576040517f08c379a0000000000000000000000000000000000000000000000000000000008152600401620000729062000175565b60405180910390fd5b60ff801660008054906101000a900460ff1660ff1614620000ec5760ff6000806101000a81548160ff021916908360ff1602179055507f7f26b83ff96e1f2b6a682f133852f6798a09c465da95921460cefb384740249860ff604051620000e39190620001b5565b60405180910390a15b565b600082825260208201905092915050565b7f496e697469616c697a61626c653a20636f6e747261637420697320696e69746960008201527f616c697a696e6700000000000000000000000000000000000000000000000000602082015250565b60006200015d602783620000ee565b91506200016a82620000ff565b604082019050919050565b6000602082019050818103600083015262000190816200014e565b9050919050565b600060ff82169050919050565b620001af8162000197565b82525050565b6000602082019050620001cc6000830184620001a4565b92915050565b61279080620001e26000396000f3fe608060405234801561001057600080fd5b50600436106101c45760003560e01c8063a8aad039116100f9578063cf706d9c11610097578063f2fde38b11610071578063f2fde38b146104c7578063fb11fe16146104e3578063ffa1ad7414610501578063ffc9896b1461051f576101c4565b8063cf706d9c1461045d578063deb612861461048d578063e5f330e8146104ab576101c4565b8063c7efb162116100d3578063c7efb162146103fd578063ca628c7814610419578063cda6b84714610423578063ce4843e91461043f576101c4565b8063a8aad039146103b7578063b34f3f68146103d5578063b88a802f146103f3576101c4565b80637bf1a3ca116101665780638da5cb5b116101405780638da5cb5b1461031b57806391fcd9a91461033957806392dc449814610369578063a17a268514610399576101c4565b80637bf1a3ca146102c35780638129fc1c146102e15780638b2631d7146102eb576101c4565b80633ca94481116101a25780633ca944811461023b5780633ffda9ab1461026b5780634880c41a14610289578063715018a6146102b9576101c4565b80632cfb6688146101c9578063346582c6146101e55780633bc5de3014610218575b600080fd5b6101e360048036038101906101de9190611bec565b610553565b005b6101ff60048036038101906101fa9190611bec565b6108cf565b60405161020f9493929190611c28565b60405180910390f35b61022061097c565b60405161023296959493929190611c6d565b60405180910390f35b61025560048036038101906102509190611d2c565b6109ae565b6040516102629190611d59565b60405180910390f35b6102736109c6565b6040516102809190611d59565b60405180910390f35b6102a3600480360381019061029e9190611d2c565b6109cc565b6040516102b09190611d59565b60405180910390f35b6102c16109e4565b005b6102cb6109f8565b6040516102d89190611d83565b60405180910390f35b6102e9610a1e565b005b61030560048036038101906103009190611d2c565b610b5c565b6040516103129190611d59565b60405180910390f35b610323610b74565b6040516103309190611d83565b60405180910390f35b610353600480360381019061034e9190611d2c565b610b9e565b6040516103609190611d59565b60405180910390f35b610383600480360381019061037e9190611d2c565b610cb5565b6040516103909190611d59565b60405180910390f35b6103a1610ccd565b6040516103ae9190611db9565b60405180910390f35b6103bf610cd9565b6040516103cc9190611d83565b60405180910390f35b6103dd610cff565b6040516103ea9190611d59565b60405180910390f35b6103fb610d05565b005b61041760048036038101906104129190611dd4565b610f6d565b005b610421611064565b005b61043d60048036038101906104389190611bec565b6112e4565b005b610447611639565b6040516104549190611d59565b60405180910390f35b61047760048036038101906104729190611d2c565b61163f565b6040516104849190611d59565b60405180910390f35b610495611657565b6040516104a29190611d59565b60405180910390f35b6104c560048036038101906104c09190611bec565b61165d565b005b6104e160048036038101906104dc9190611d2c565b61177e565b005b6104eb611801565b6040516104f89190611d83565b60405180910390f35b610509611827565b6040516105169190611d59565b60405180910390f35b61053960048036038101906105349190611d2c565b61182d565b60405161054a959493929190611e4f565b60405180910390f35b6000339050606c60008273ffffffffffffffffffffffffffffffffffffffff1673ffffffffffffffffffffffffffffffffffffffff1681526020019081526020016000205442116105d9576040517f08c379a00000000000000000000000000000000000000000000000000000000081526004016105d090611eff565b60405180910390fd5b6000606a60008373ffffffffffffffffffffffffffffffffffffffff1673ffffffffffffffffffffffffffffffffffffffff1681526020019081526020016000205490506070548114610661576040517f08c379a000000000000000000000000000000000000000000000000000000000815260040161065890611f6b565b60405180910390fd5b6000606b60008473ffffffffffffffffffffffffffffffffffffffff1673ffffffffffffffffffffffffffffffffffffffff168152602001908152602001600020549050808411156106e8576040517f08c379a00000000000000000000000000000000000000000000000000000000081526004016106df90611fd7565b60405180910390fd5b600084826106f69190612026565b905084606f546107069190612026565b606f8190555080606b60008673ffffffffffffffffffffffffffffffffffffffff1673ffffffffffffffffffffffffffffffffffffffff168152602001908152602001600020819055506000606e60003373ffffffffffffffffffffffffffffffffffffffff1673ffffffffffffffffffffffffffffffffffffffff16815260200190815260200160002054905085816107a0919061205a565b606e60003373ffffffffffffffffffffffffffffffffffffffff1673ffffffffffffffffffffffffffffffffffffffff16815260200190815260200160002081905550607254426107f1919061205a565b606d60003373ffffffffffffffffffffffffffffffffffffffff1673ffffffffffffffffffffffffffffffffffffffff168152602001908152602001600020819055508473ffffffffffffffffffffffffffffffffffffffff167febf91dd00f54f084fda628ada2428ac8c02755e10fb22cef87346c0d7a3b5813428585606d60003373ffffffffffffffffffffffffffffffffffffffff1673ffffffffffffffffffffffffffffffffffffffff168152602001908152602001600020546040516108bf9493929190611c28565b60405180910390a2505050505050565b600080600080606985815481106108e9576108e861208e565b5b9060005260206000209060040201600001546069868154811061090f5761090e61208e565b5b906000526020600020906004020160010154606987815481106109355761093461208e565b5b9060005260206000209060040201600201546069888154811061095b5761095a61208e565b5b90600052602060002090600402016003015493509350935093509193509193565b600080600080600080606554606980549050606f54607054607154607254955095509550955095509550909192939495565b606c6020528060005260406000206000915090505481565b60715481565b606d6020528060005260406000206000915090505481565b6109ec611988565b6109f66000611a06565b565b606660009054906101000a900473ffffffffffffffffffffffffffffffffffffffff1681565b60008060019054906101000a900460ff16159050808015610a4f5750600160008054906101000a900460ff1660ff16105b80610a7c5750610a5e30611acc565b158015610a7b5750600160008054906101000a900460ff1660ff16145b5b610abb576040517f08c379a0000000000000000000000000000000000000000000000000000000008152600401610ab29061212f565b60405180910390fd5b60016000806101000a81548160ff021916908360ff1602179055508015610af8576001600060016101000a81548160ff0219169083151502179055505b610b00611aef565b8015610b595760008060016101000a81548160ff0219169083151502179055507f7f26b83ff96e1f2b6a682f133852f6798a09c465da95921460cefb38474024986001604051610b5091906121a1565b60405180910390a15b50565b606a6020528060005260406000206000915090505481565b6000603360009054906101000a900473ffffffffffffffffffffffffffffffffffffffff16905090565b6000806000606a60008573ffffffffffffffffffffffffffffffffffffffff1673ffffffffffffffffffffffffffffffffffffffff1681526020019081526020016000205490506000606b60008673ffffffffffffffffffffffffffffffffffffffff1673ffffffffffffffffffffffffffffffffffffffff16815260200190815260200160002054905060008290505b607054811015610ca957600060698281548110610c4f57610c4e61208e565b5b90600052602060002090600402016002015490506000670de0b6b3a76400008483610c7a91906121bc565b610c84919061222d565b90508086610c92919061205a565b955050508080610ca19061225e565b915050610c2f565b50829350505050919050565b606e6020528060005260406000206000915090505481565b600080606f5411905090565b606760009054906101000a900473ffffffffffffffffffffffffffffffffffffffff1681565b60725481565b60003390506000606a60008373ffffffffffffffffffffffffffffffffffffffff1673ffffffffffffffffffffffffffffffffffffffff1681526020019081526020016000205490506000606b60008473ffffffffffffffffffffffffffffffffffffffff1673ffffffffffffffffffffffffffffffffffffffff1681526020019081526020016000205411610dd0576040517f08c379a0000000000000000000000000000000000000000000000000000000008152600401610dc7906122f2565b60405180910390fd5b6070548110610e14576040517f08c379a0000000000000000000000000000000000000000000000000000000008152600401610e0b9061235e565b60405180910390fd5b6000610e1f83610b9e565b9050607054606a60008573ffffffffffffffffffffffffffffffffffffffff1673ffffffffffffffffffffffffffffffffffffffff168152602001908152602001600020819055506000811115610f1257606760009054906101000a900473ffffffffffffffffffffffffffffffffffffffff1673ffffffffffffffffffffffffffffffffffffffff1663a9059cbb33836040518363ffffffff1660e01b8152600401610ecd92919061237e565b6020604051808303816000875af1158015610eec573d6000803e3d6000fd5b505050506040513d601f19601f82011682018060405250810190610f1091906123d3565b505b8273ffffffffffffffffffffffffffffffffffffffff167f483e3ca361c7b5e5a1f600e9c06025be8c62aa815785f54efa3b184761090966428460705485604051610f609493929190611c28565b60405180910390a2505050565b610f75611988565b600060655414610f8457600080fd5b600160658190555084606660006101000a81548173ffffffffffffffffffffffffffffffffffffffff021916908373ffffffffffffffffffffffffffffffffffffffff16021790555083606760006101000a81548173ffffffffffffffffffffffffffffffffffffffff021916908373ffffffffffffffffffffffffffffffffffffffff16021790555082606860006101000a81548173ffffffffffffffffffffffffffffffffffffffff021916908373ffffffffffffffffffffffffffffffffffffffff16021790555081607181905550806072819055505050505050565b6000606e60003373ffffffffffffffffffffffffffffffffffffffff1673ffffffffffffffffffffffffffffffffffffffff16815260200190815260200160002054116110e6576040517f08c379a00000000000000000000000000000000000000000000000000000000081526004016110dd9061244c565b60405180910390fd5b606d60003373ffffffffffffffffffffffffffffffffffffffff1673ffffffffffffffffffffffffffffffffffffffff168152602001908152602001600020544211611167576040517f08c379a000000000000000000000000000000000000000000000000000000000815260040161115e90611eff565b60405180910390fd5b6000606e60003373ffffffffffffffffffffffffffffffffffffffff1673ffffffffffffffffffffffffffffffffffffffff1681526020019081526020016000205490506000606e60003373ffffffffffffffffffffffffffffffffffffffff1673ffffffffffffffffffffffffffffffffffffffff16815260200190815260200160002081905550606660009054906101000a900473ffffffffffffffffffffffffffffffffffffffff1673ffffffffffffffffffffffffffffffffffffffff1663a9059cbb33836040518363ffffffff1660e01b815260040161124d92919061237e565b6020604051808303816000875af115801561126c573d6000803e3d6000fd5b505050506040513d601f19601f8201168201806040525081019061129091906123d3565b503373ffffffffffffffffffffffffffffffffffffffff167f35e27ac307c7e02eb8f2a888449884d0a2423a0f0ce63e23c2a8e5497d7c1e9942836040516112d992919061246c565b60405180910390a250565b60003390506000821161132c576040517f08c379a0000000000000000000000000000000000000000000000000000000008152600401611323906124e1565b60405180910390fd5b6000606b60008373ffffffffffffffffffffffffffffffffffffffff1673ffffffffffffffffffffffffffffffffffffffff16815260200190815260200160002054905060008114806113bf5750607054606a60008473ffffffffffffffffffffffffffffffffffffffff1673ffffffffffffffffffffffffffffffffffffffff16815260200190815260200160002054145b6113fe576040517f08c379a00000000000000000000000000000000000000000000000000000000081526004016113f590612573565b60405180910390fd5b606660009054906101000a900473ffffffffffffffffffffffffffffffffffffffff1673ffffffffffffffffffffffffffffffffffffffff166323b872dd3330866040518463ffffffff1660e01b815260040161145d93929190612593565b6020604051808303816000875af115801561147c573d6000803e3d6000fd5b505050506040513d601f19601f820116820180604052508101906114a091906123d3565b50600083826114af919061205a565b905083606f546114bf919061205a565b606f81905550607054606a60008573ffffffffffffffffffffffffffffffffffffffff1673ffffffffffffffffffffffffffffffffffffffff1681526020019081526020016000208190555080606b60008573ffffffffffffffffffffffffffffffffffffffff1673ffffffffffffffffffffffffffffffffffffffff168152602001908152602001600020819055506071544261155d919061205a565b606c60008573ffffffffffffffffffffffffffffffffffffffff1673ffffffffffffffffffffffffffffffffffffffff168152602001908152602001600020819055508273ffffffffffffffffffffffffffffffffffffffff167ffe7251bef16b240dc4b430c34a7394de2f42a5ba0be0ed6697b1bd1ae5fece37428484606c60008973ffffffffffffffffffffffffffffffffffffffff1673ffffffffffffffffffffffffffffffffffffffff1681526020019081526020016000205460405161162b9493929190611c28565b60405180910390a250505050565b606f5481565b606b6020528060005260406000206000915090505481565b60705481565b606860009054906101000a900473ffffffffffffffffffffffffffffffffffffffff1673ffffffffffffffffffffffffffffffffffffffff163373ffffffffffffffffffffffffffffffffffffffff16146116b757600080fd5b6116bf610ccd565b6116c857600080fd5b6000606f54670de0b6b3a7640000836116e191906121bc565b6116eb919061222d565b905060016070546116fc919061205a565b60708190555060696040518060800160405280848152602001606f5481526020018381526020014281525090806001815401808255809150506001900390600052602060002090600402016000909190919091506000820151816000015560208201518160010155604082015181600201556060820151816003015550505050565b611786611988565b600073ffffffffffffffffffffffffffffffffffffffff168173ffffffffffffffffffffffffffffffffffffffff16036117f5576040517f08c379a00000000000000000000000000000000000000000000000000000000081526004016117ec9061263c565b60405180910390fd5b6117fe81611a06565b50565b606860009054906101000a900473ffffffffffffffffffffffffffffffffffffffff1681565b60655481565b6000806000806000606a60008773ffffffffffffffffffffffffffffffffffffffff1673ffffffffffffffffffffffffffffffffffffffff16815260200190815260200160002054606b60008873ffffffffffffffffffffffffffffffffffffffff1673ffffffffffffffffffffffffffffffffffffffff16815260200190815260200160002054606c60008973ffffffffffffffffffffffffffffffffffffffff1673ffffffffffffffffffffffffffffffffffffffff16815260200190815260200160002054606d60008a73ffffffffffffffffffffffffffffffffffffffff1673ffffffffffffffffffffffffffffffffffffffff16815260200190815260200160002054606e60008b73ffffffffffffffffffffffffffffffffffffffff1673ffffffffffffffffffffffffffffffffffffffff168152602001908152602001600020549450945094509450945091939590929450565b611990611b48565b73ffffffffffffffffffffffffffffffffffffffff166119ae610b74565b73ffffffffffffffffffffffffffffffffffffffff1614611a04576040517f08c379a00000000000000000000000000000000000000000000000000000000081526004016119fb906126a8565b60405180910390fd5b565b6000603360009054906101000a900473ffffffffffffffffffffffffffffffffffffffff16905081603360006101000a81548173ffffffffffffffffffffffffffffffffffffffff021916908373ffffffffffffffffffffffffffffffffffffffff1602179055508173ffffffffffffffffffffffffffffffffffffffff168173ffffffffffffffffffffffffffffffffffffffff167f8be0079c531659141344cd1fd0a4f28419497f9722a3daafe3b4186f6b6457e060405160405180910390a35050565b6000808273ffffffffffffffffffffffffffffffffffffffff163b119050919050565b600060019054906101000a900460ff16611b3e576040517f08c379a0000000000000000000000000000000000000000000000000000000008152600401611b359061273a565b60405180910390fd5b611b46611b50565b565b600033905090565b600060019054906101000a900460ff16611b9f576040517f08c379a0000000000000000000000000000000000000000000000000000000008152600401611b969061273a565b60405180910390fd5b611baf611baa611b48565b611a06565b565b600080fd5b6000819050919050565b611bc981611bb6565b8114611bd457600080fd5b50565b600081359050611be681611bc0565b92915050565b600060208284031215611c0257611c01611bb1565b5b6000611c1084828501611bd7565b91505092915050565b611c2281611bb6565b82525050565b6000608082019050611c3d6000830187611c19565b611c4a6020830186611c19565b611c576040830185611c19565b611c646060830184611c19565b95945050505050565b600060c082019050611c826000830189611c19565b611c8f6020830188611c19565b611c9c6040830187611c19565b611ca96060830186611c19565b611cb66080830185611c19565b611cc360a0830184611c19565b979650505050505050565b600073ffffffffffffffffffffffffffffffffffffffff82169050919050565b6000611cf982611cce565b9050919050565b611d0981611cee565b8114611d1457600080fd5b50565b600081359050611d2681611d00565b92915050565b600060208284031215611d4257611d41611bb1565b5b6000611d5084828501611d17565b91505092915050565b6000602082019050611d6e6000830184611c19565b92915050565b611d7d81611cee565b82525050565b6000602082019050611d986000830184611d74565b92915050565b60008115159050919050565b611db381611d9e565b82525050565b6000602082019050611dce6000830184611daa565b92915050565b600080600080600060a08688031215611df057611def611bb1565b5b6000611dfe88828901611d17565b9550506020611e0f88828901611d17565b9450506040611e2088828901611d17565b9350506060611e3188828901611bd7565b9250506080611e4288828901611bd7565b9150509295509295909350565b600060a082019050611e646000830188611c19565b611e716020830187611c19565b611e7e6040830186611c19565b611e8b6060830185611c19565b611e986080830184611c19565b9695505050505050565b600082825260208201905092915050565b7f696e76616c69642074696d650000000000000000000000000000000000000000600082015250565b6000611ee9600c83611ea2565b9150611ef482611eb3565b602082019050919050565b60006020820190508181036000830152611f1881611edc565b9050919050565b7f686176652072657761726420756e636c61696d65640000000000000000000000600082015250565b6000611f55601583611ea2565b9150611f6082611f1f565b602082019050919050565b60006020820190508181036000830152611f8481611f48565b9050919050565b7f696e76616c696420756e7374616b6520616d6f756e7400000000000000000000600082015250565b6000611fc1601683611ea2565b9150611fcc82611f8b565b602082019050919050565b60006020820190508181036000830152611ff081611fb4565b9050919050565b7f4e487b7100000000000000000000000000000000000000000000000000000000600052601160045260246000fd5b600061203182611bb6565b915061203c83611bb6565b925082820390508181111561205457612053611ff7565b5b92915050565b600061206582611bb6565b915061207083611bb6565b925082820190508082111561208857612087611ff7565b5b92915050565b7f4e487b7100000000000000000000000000000000000000000000000000000000600052603260045260246000fd5b7f496e697469616c697a61626c653a20636f6e747261637420697320616c72656160008201527f647920696e697469616c697a6564000000000000000000000000000000000000602082015250565b6000612119602e83611ea2565b9150612124826120bd565b604082019050919050565b600060208201905081810360008301526121488161210c565b9050919050565b6000819050919050565b600060ff82169050919050565b6000819050919050565b600061218b6121866121818461214f565b612166565b612159565b9050919050565b61219b81612170565b82525050565b60006020820190506121b66000830184612192565b92915050565b60006121c782611bb6565b91506121d283611bb6565b92508282026121e081611bb6565b915082820484148315176121f7576121f6611ff7565b5b5092915050565b7f4e487b7100000000000000000000000000000000000000000000000000000000600052601260045260246000fd5b600061223882611bb6565b915061224383611bb6565b925082612253576122526121fe565b5b828204905092915050565b600061226982611bb6565b91507fffffffffffffffffffffffffffffffffffffffffffffffffffffffffffffffff820361229b5761229a611ff7565b5b600182019050919050565b7f68617665206e6f74207374616b65000000000000000000000000000000000000600082015250565b60006122dc600e83611ea2565b91506122e7826122a6565b602082019050919050565b6000602082019050818103600083015261230b816122cf565b9050919050565b7f72657761726420616c726561647920636c61696d656400000000000000000000600082015250565b6000612348601683611ea2565b915061235382612312565b602082019050919050565b600060208201905081810360008301526123778161233b565b9050919050565b60006040820190506123936000830185611d74565b6123a06020830184611c19565b9392505050565b6123b081611d9e565b81146123bb57600080fd5b50565b6000815190506123cd816123a7565b92915050565b6000602082840312156123e9576123e8611bb1565b5b60006123f7848285016123be565b91505092915050565b7f6e6f2070656e64696e6720776974686472617700000000000000000000000000600082015250565b6000612436601383611ea2565b915061244182612400565b602082019050919050565b6000602082019050818103600083015261246581612429565b9050919050565b60006040820190506124816000830185611c19565b61248e6020830184611c19565b9392505050565b7f616d6f756e742030000000000000000000000000000000000000000000000000600082015250565b60006124cb600883611ea2565b91506124d682612495565b602082019050919050565b600060208201905081810360008301526124fa816124be565b9050919050565b7f68617665207374616b65206f7220686176652072657761726420756e636c616960008201527f6d65640000000000000000000000000000000000000000000000000000000000602082015250565b600061255d602383611ea2565b915061256882612501565b604082019050919050565b6000602082019050818103600083015261258c81612550565b9050919050565b60006060820190506125a86000830186611d74565b6125b56020830185611d74565b6125c26040830184611c19565b949350505050565b7f4f776e61626c653a206e6577206f776e657220697320746865207a65726f206160008201527f6464726573730000000000000000000000000000000000000000000000000000602082015250565b6000612626602683611ea2565b9150612631826125ca565b604082019050919050565b6000602082019050818103600083015261265581612619565b9050919050565b7f4f776e61626c653a2063616c6c6572206973206e6f7420746865206f776e6572600082015250565b6000612692602083611ea2565b915061269d8261265c565b602082019050919050565b600060208201905081810360008301526126c181612685565b9050919050565b7f496e697469616c697a61626c653a20636f6e7472616374206973206e6f74206960008201527f6e697469616c697a696e67000000000000000000000000000000000000000000602082015250565b6000612724602b83611ea2565b915061272f826126c8565b604082019050919050565b6000602082019050818103600083015261275381612717565b905091905056fea26469706673582212200c15ae3bd58b834dffb023169c7783ea12212a5df034a4440c837c2a438cc0fe64736f6c63430008120033",
  "linkReferences": {},
  "deployedLinkReferences": {}
}